:020000041000EA
:1000000000B5324B212058609868022188439860DF
:10001000D860186158612E4B002199600221596106
:100020000121F02299502B49196001219960352056
:1000300000F044F80222904214D00621196600F024
:1000400034F8196E01211966002018661A6600F04E
:100050002CF8196E196E196E052000F02FF8012189
:100060000842F9D1002199601B49196000215960AB
:100070001A491B48016001219960EB211966A021F2
:10008000196600F012F800219960164914480160C1
:100090000121996001BC002800D000471248134993
:1000A000086003C880F30888084703B5996A0420EC
:1000B0000142FBD001200142F8D103BD02B5186610
:1000C0001866FFF7F2FF186E186E02BD00000240BE
:1000D000000000180000070000035F00212200005C
:1000E000F4000018222000A00001001008ED00E03C
:1000F00000000000000000000000000074B24E7A12
:1001000000200420F7010010C3010010C5010010F9
:10011000C1010010C1010010C1010010C101001097
:10012000C1010010C1010010C1010010C701001081
:10013000C1010010C1010010C9010010CB01001065
:10014000CD010010CD010010CD010010CD01001037
:10015000CD010010CD010010CD010010CD01001027
:10016000CD010010CD010010CD010010CD01001017
:10017000CD010010CD010010CD010010CD01001007
:10018000CD010010CD010010CD010010CD010010F7
:10019000CD010010CD010010CD010010CD010010E7
:1001A000CD010010CD010010CD010010CD010010D7
:1001B000CD010010CD010010CD010010CD010010C7
:1001C00000BE00BE00BE00BE00BE00BEEFF3058054
:1001D000103800BEF2EB8871445900106C590010C1
:1001E0003402001090A31AE700201F49086006C8D7
:1001F00081F3088810471D48006800282FD10DA4FE
:100200000ECC002902D000F012F8F9E71849194A7B
:10021000002000E001C19142FCD1174988471749ED
:1002200088471749884700BEFDE701C901C29A42C5
:10023000FBD370476C590010C0000020140300204D
:10024000C05B00100000042000000420C05B001010
:10025000001004200010042000000000704709482E
:1002600003F096F90047000008ED00E0000000D020
:100270001803002004070020ED2200102D030010B9
:10028000A92200105756000006005250ABB360532D
:10029000A458001006005250861C0302B4580010E7
:1002A000060052505422A29DB8580010050052502A
:1002B000DE65F468C05B0010F8B5C0460648074923
:1002C000091A8B10C90FC91810B5491003D0044B77
:1002D000002B00D0984710BD140300201403002009
:1002E00000000000054B10B5002B03D00449054861
:1002F00000E000BFFFF7E2FF10BDC04600000000B5
:10030000B8040020B0490010D0231B065B689B0195
:1003100005D5D0231B06802292049A617047D02312
:100320001B06802292045A61F8E7000010B584B0E1
:1003300004F0DCF9192000F029F90E2000F026F96C
:100340000F2000F023F9092000F020F9D0231B062C
:100350008024A4045C628022D2015A6280200002C0
:1003600058628021890059629C61986199619A6103
:1003700000F0BCFE324B029300230193314B0093FB
:10038000314A002300F0F4FF03210C2000F0CCF8E8
:1003900003210D2000F0C8F8002201210C2000F0FC
:1003A000DBF8002201210D2000F0D6F8274C284868
:1003B000210001F00FFD03210A2000F0B5F8032110
:1003C0000B2000F0B1F8002201210A2000F0C4F84F
:1003D000002201210B2000F0BFF81E48210001F08F
:1003E000F9FC04210E2000F09FF81B4B1B499C22B6
:1003F0008B501B4A126853401B041B0C194A136094
:10040000194B1A6801239343184A1360FA2080009D
:1004100001F0A2F800240EE0154B9C466444A3B200
:100420000F4A126853401B041B0C0E4A1360FA203B
:10043000800001F091F8002CEED10E4CECE7C046A4
:10044000180400200903001020A10700A086010065
:10045000AC020020B4020020FFFF000000000540B5
:1004600098000540981005408C0005408C10054010
:10047000F0D8FFFF70110100034B1B6802201840E9
:10048000431E9841C0B2704700C00640EFF3108091
:1004900072B6034B1B68002BFBD0BFF35F8F704716
:1004A0002C0100D0BFF35F8F024B00221A6080F353
:1004B000108870472C0100D0F8B506000C0015001C
:1004C000FFF7E4FFE308F718F15C0722224001235D
:1004D00093400B4205D1DBB20B433B70FFF7E2FFC9
:1004E000F8BD2100280001F07DFF0000002307E097
:1004F000054A9A189200BFF35F8F00211160013303
:100500001F2BF5D97047C04640000034054A1078CB
:10051000431CDBB21370172B02D9130010221A7080
:100520007047C0463802002010B58300084A944640
:1005300063441A684024624080341440802252018F
:1005400013431C60C000034B9C466044416010BDD7
:1005500004C001400040014080000B4B9C466044B9
:1005600000290DD00823002A0CD00422134302686E
:1005700053400C221A4080235B0103431A607047EA
:100580000023F0E70022F1E704C0014010B5012389
:100590008340D0221206936293610521FFF7C4FFC6
:1005A00010BD0000074B9B68103080001950BFF34E
:1005B0005F8FBFF35F8F044B0021196082F31088B7
:1005C0007047C04600ED00E0240100D010B5091AC4
:1005D0000B1F0A4A94466144094A914208D8DA0737
:1005E00006D45B105B055B0D0648184380B210BD56
:1005F000054B064A0648A32101F05AFEFC070000FD
:10060000FE0F000000E0FFFFCC490010204C00105E
:10061000FC49001010B5091A04394A08090B08D121
:100620004905490D064B0B430380064B134343809A
:1006300010BD054B054A0648AB2101F039FEC04606
:1006400000F0FFFF00F8FFFF3C4A0010F44B0010E1
:10065000FC49001001238340034A10681840431EE0
:100660009841C0B27047C04600E100E0002904D0C4
:10067000034B1860034B18607047034B1860FBE78F
:1006800080E200E000E100E080E100E010B501233D
:1006900083401800FFF7EAFF10BD0000024B9B6883
:1006A00010308000C058704700ED00E070B50400C5
:1006B0000D00EFF3108672B60C4B1B68002BFBD0BD
:1006C000BFF35F8F2000FFF7E9FF094B984201D08D
:1006D000A84205D1320029002000FFF763FF70BD5A
:1006E000044B054A0548862101F0E2FD240100D0B3
:1006F000CD0100104C4A00103C4C0010FC49001089
:10070000F0B5CE46474680B583B006000D00EFF346
:10071000108872B6554B1B68002BFBD0BFF35F8F60
:10072000534B9A6834001034A300D758514B9F4262
:1007300007D0AF4200D196E001974F4BFB1A2F2B09
:1007400009D9424639003000FFF72CFF03B0C0BC86
:10075000B946B046F0BD3000FFF77CFF814600216E
:100760003000FFF793FFBFF35F8FEFF305810029A0
:1007700001D08C4211D10123019C9C430020A3682D
:10078000AB4212D00622A256002A0DDB53009B1862
:100790009B00394A2000D418F1E7384B384A3621FB
:1007A0003848FF3101F084FD2000AB4254D10625CA
:1007B0006557002D36DB304B6A00521992009B18AA
:1007C0009A68A260DA79E2719B795BB2A371002B1F
:1007D0000FDA2D48A080284B6A00521992009B180E
:1007E0002A4A11789971157049463000FFF74EFF7B
:1007F000A7E7201D6B005B199B001F4A9B18191D62
:100800009B88DA0A1C2A07D15B055B1502335B0063
:10081000C918FFF7DBFEDDE71D4B1E4A1948B12161
:1008200001F046FD002912D100280ED0FF2383716C
:10083000194B838015490B78A3710F4A174BA41AE3
:10084000644163431B0D0B70CEE70A4FF2E7144976
:10085000201DFFF7DFFEC7E7124B094A6A2109484E
:10086000FF3101F025FD034F6BE7C046240100D0A6
:1008700000ED00E0CD0100103C020020604B0010B4
:100880000C4C0010FC49001001BD000001070020C5
:10089000484B00102C4C001001BDFFFFAAAA00001D
:1008A00076020020944B001070B5012202432E4BBB
:1008B000D31A2F2B28D8EFF30583002B2BD0EFF37F
:1008C000108C72B6294909680029FBD0BFF35F8FED
:1008D000254C274905002D1B6D416943090D4CB27C
:1008E000244989689B00C95891421BD000210329E3
:1008F00032D81D4B4A00521892009B189B795BB26C
:10090000A3421FD00131F2E71B4B1C4AC7211C48F0
:10091000490001F0CDFC1B4B184A92211848FF31C9
:1009200001F0C6FC134A92681749D150174B1A7848
:1009300082711C70BFF35F8F0C4B00221A608CF326
:10094000108870BD084B4A005518AD005D19FF2690
:10095000AE710F4AAA80E9E70E4B084AD121084838
:10096000490001F0A5FCC0463C020020240100D053
:10097000AAAA000000ED00E09C4B0010D84B00102C
:10098000FC490010C44B0010CD01001001070020ED
:1009900001BDFFFFD04B00100022044B02E00449D0
:1009A00002C30132072AFAD97047C04600E400E0CA
:1009B00080808080024B9C466144890001607047C2
:1009C0004000003410B50400FFF7A0FD0100200036
:1009D000FFF7F0FFFF232371BFF35F8F10BD10B54A
:1009E0000400FFF793FD01002000FFF7E3FFFF2362
:1009F000237100236371BFF35F8F10BD10B50C002E
:100A0000CB68834207D10B6908009847002809D0BA
:100A10002068616810BD064B064AA82106484900B7
:100A200001F046FC0023E36000200021F2E7C0460D
:100A30006C4D0010D04F0010804D001070B50500B7
:100A40000C00080000F016FF0949200000F056FED7
:100A5000FFF75CFD074B9C466044800068602C7586
:100A6000D0231B061B786B75034BA400E55070BDAB
:100A7000710D001040000034D00400200A4B1A68A9
:100A8000EFF3108172B61368002BFCD0BFF35F8FB9
:100A9000054B1B68BFF35F8F00221A6081F310883B
:100AA00040BF002000217047E406002010B5002957
:100AB00020D003681B7B99421CD88368154CA44640
:100AC000614409015B181C685968002A18D0036842
:100AD0001B7B9A4214D883680E48844662441201F4
:100AE0009B181A685B6801208B4201D80ED0002049
:100AF000C0B210BD084B094A09483C2101F0D8FB9F
:100B0000054B064A06483C2101F0D2FBA242EFD831
:100B1000EDE7C046FFFFFF0FB84D00103850001042
:100B2000804D001010B500291DD0037B99421AD8C2
:100B300004684B005B18033BE418002919D0002A15
:100B40001DD0914221D0002A25D0037B9A4222D881
:100B5000006853009B18033BC31899702178002943
:100B60001FD1227010BD104B104A1148682101F0AE
:100B70009FFB104B104A0E486F3101F099FB0F4B51
:100B80000D4A0B48702101F093FB0D4B0A4A0848AF
:100B9000712101F08DFB044B044A0548682101F0E6
:100BA00087FB59702270DDE7DC4D0010A450001067
:100BB000F84D0010444E001080500010504E0010B0
:100BC0005C4E001070B506000D001400002914D012
:100BD000002A14D0436880689847002806D0220075
:100BE00029003000FFF79EFF280007E02A002100BF
:100BF0003000FFF797FF200000E0100070BD0800F4
:100C0000FCE70000F0B583B00500009201930AAB49
:100C10001C780BAB1F78002C26D003685A7B9442BB
:100C200007D10123002B19D1002C3AD1200003B0A9
:100C3000F0BD002C0CD01A7B944209D81A686300CE
:100C40001B19033BD3189B78002BEBD00123E9E75A
:100C50003C4B3D4A3D48682101F02AFB3C4B3D4A54
:100C60003D48672101F024FB03689C7B002CDBD00E
:100C700011D01A7B94420ED81A6861000919033901
:100C8000521851789973002900D1D97300239370B9
:100C900053701370C8E72B4B2B4A2C48682101F086
:100CA00007FB002C37D02B681B7B9C4233D8AB68EA
:100CB0002A4AA21812019B18009A1A60019A5A60D7
:100CC000089A9A60099ADA602E68002C29D02ED0F2
:100CD000337B9C422BD8336862001219033A9B186D
:100CE00000229A705A701A70717B22003000FFF750
:100CF00069FF7073844299D1287D009A019B00F0AE
:100D000045FD061E01D0002F17D00C9B002B00D1F3
:100D10008CE71E708AE7124B124A0F483C2101F003
:100D2000C7FA114B114A0948A52101F0C1FA054B38
:100D3000054A0648682101F0BBFA2868210000F046
:100D400055FFE2E7DC4D0010A4500010F84D0010F4
:100D5000744E0010B0500010804D0010FFFFFF0FC8
:100D6000B84D0010385000107C4D00109450001009
:100D7000F0B5DE4657464E464546E0B58BB0099085
:100D800000230893B54B8200D55854E0B44BB54AC4
:100D9000B5483F2101F08CFAB44BB54AB5483C2127
:100DA00001F086FA002F01D1002E6BD1002100F056
:100DB00013FFA0421CD143461A685B680692079352
:100DC00043469B689A464346DB689B465346002B46
:100DD00014D0002C18D02B681B7B9C4214D8EA68D6
:100DE000631ED35C08931B0218432861002015E0A2
:100DF000A14BA24A9F488E2101F05AFAA04B9F4A6C
:100E00009C48922101F054FA984B9E4A99484121FE
:100E100001F04EFA00239B469A4600206B68BFF310
:100E20005F8F00221A6089F310885346002B33D15C
:100E3000002800D10BE100F041FC02000B1EA5DBF5
:100E400000200021069007916868EFF3108972B6C0
:100E500001680029FCD0BFF35F8F2868447B002C19
:100E6000D8D099D0017B8C4296D8AE68864961185B
:100E70000901B046884441460E684F68B61A9F4142
:100E8000002F8FDD43461A685B68099800F07EFCEE
:100E900000239B469A46C1E7089B1B0223439846C2
:100EA00059461800D04706000F006A68EFF3108912
:100EB00072B6136859424B41D9B2002BF9D1BFF336
:100EC0005F8F002F1EDB002F46DD2B69002B47D0E4
:100ED00043456DD100F0F2FB02000B1E6EDB921950
:100EE0007B41002B70DB002B72DB00210491013170
:100EF0000391029459460191514600912800FFF751
:100F000081FE4CE02B69002BDDD0434514D1069ABD
:100F1000079B921BBB41002B14DB002B16DB00212F
:100F20000491013103910294594601915146009177
:100F30002800FFF767FE32E0544B504A4D48A1218C
:100F400001F0B6F901225242514BE6E7444B454AC3
:100F500045483F2101F0ACF9002F01D1002EB4D15A
:100F60002B68002C4FD05A7B944237D101210029A5
:100F700049D1DA7B002A4CD19A7B002A03D1DA7B53
:100F8000002A58D19C73DC73002C5AD02B681B7B31
:100F90009C4256D8EA68013C135D01331355002387
:100FA0002B616A68BFF35F8F136089F3108842E793
:100FB000364B324A2F48A42101F07AF9284B294AAE
:100FC00029483F2101F074F901225242304B8AE74F
:100FD000234B244A24483F2101F06AF9002C0CD00D
:100FE0001A7B944209D8186862001219033A8218D1
:100FF0009278002ABBD00121B9E7264B264A274820
:10100000682101F055F9264B264A2448F62101F0C3
:101010004FF9002A09D0197B8A4206D81868510076
:101020008A18033A82185470A6E71A4B1A4A1B48CA
:10103000682101F03DF91C4B1A4A1848FB2101F0C8
:1010400037F90A4B0F4A0B48412101F031F90BB037
:10105000F0BCBB46B246A946A046F0BDD004002075
:10106000AC4C001004500010C84C0010B84D0010DB
:1010700038500010804D00109C4E00101C50001085
:10108000B44E00105C500010FFFFFF0FC04E001068
:10109000FFFFFF7FDC4D0010A4500010F84D001042
:1010A000FC4E001070500010204F001010B50C4B7B
:1010B0005B68002B04D00B480A21FFF77BFC10BDB6
:1010C000074C094A20682300102100F09BFC0320F4
:1010D00000F0E8FA03212000FFF7B0FCEBE7C04680
:1010E00084020020E4060020AD0A001010B5064B73
:1010F0005B68002B01D0044810BD044B044A05482E
:101100005E2101F0D5F8C04684020020344F001063
:1011100044500010804D0010F0B5DE4657464E4654
:101120004546E0B58BB0804616001F00149B9A46DA
:10113000159B994616AB1B789B461F2302AA944623
:10114000634400221A702DE0002809D0424612683C
:10115000127B904204D84246D168421E8A5C43E02A
:10116000414B424A4248412101F0A2F807984EE023
:10117000361BAF41002F07DB002F13DA3D4B3E4AF1
:101180003E483F2101F094F8012676423C4FF3E7B8
:10119000384B394A39483F2101F08AF8002D51DB9C
:1011A00026002F0043465A68EFF3108472B6136886
:1011B00059424B41D9B20791002BF8D1BFF35F8F51
:1011C0001F3302AA944663440493002303930293BB
:1011D0004B4601935346009332003B004046FFF7D5
:1011E00011FD031EB0D1020041464968BFF35F8F75
:1011F00000250D6084F31088002B29D01F2302A93D
:101200008C4663441B78002BB0D112021043002B94
:1012100020D05B46002B1DD04946D04704000D006E
:1012200003000B431DD00029A2DB00F047FA0200A7
:101230000B1EADDBA4185D41002DAFDA0124644222
:101240000F4DABE70B4B0C4A0C483F2101F030F837
:10125000012040420BB0F0BCBB46B246A946A046B6
:10126000F0BD0798F6E7C046B84D00105C5000107E
:10127000804D0010AC4C001004500010C84C001001
:10128000FFFFFF7FF8B504004268EFF3108572B6E8
:10129000136858424341D8B2002BF9D1BFF35F8F96
:1012A000CBB22268567BB3421BD10120002847D025
:1012B000206988422AD0090AC9B2002B2DD02068A3
:1012C000007B834229D8E668581E305C88422AD0C9
:1012D00000206368BFF35F8F00221A6085F31088D7
:1012E000F8BD002B0CD0167BB34209D817685E00FE
:1012F000F618033EBE19B678002ED7D00120D5E7E8
:10130000124B134A1348682100F0D2FF124B134AC4
:1013100095211348490000F0CBFF124B124A1048A8
:10132000412100F0C5FF1900100000F05FFC00280B
:10133000CFD10E4B094A32210948FF3100F0B8FFE6
:1013400023698B42C5D100232361C2E7DC4D001025
:10135000A4500010F84D0010584F0010EC4F001032
:10136000804D0010B84D00105C5000107C4F0010F4
:10137000F0B585B007000C9E1100194301D1012280
:101380000023B7600A993161326073600B99716113
:10139000D81701004240140043401D00241A8D411B
:1013A00000F08CF902000B1E12DB12196B41002BAE
:1013B00014DB002B16DB0121029101960C490091F0
:1013C0003800FFF7A9FEF060C043C00F05B0F0BDC4
:1013D000084B094A09483F2100F06AFF01225242A6
:1013E000074BE6E7034B044A04483F2100F060FF47
:1013F000FD090010AC4C001004500010C84C001047
:10140000FFFFFF7FF0B587B006000F00EFF3058305
:10141000002B1FD106246442E517A4197D418D429B
:1014200002D803D1844201D900240025002D14DB09
:101430000494059500F042F902000B1E13DBA41A78
:101440009D41002D17DC14D03000390000F042F926
:1014500007B0F0BD234800F0C5FF234B234A2448C2
:101460003F2100F025FF204B204A21483F2100F07A
:101470001FFF002CE8D0FFF739FE002302930193F1
:101480001C4B0093049A059BFFF746FE002818DAD0
:10149000DAE7002300E00023002BD5D1164B1A68B1
:1014A000EFF3108172B61368002BFCD0BFF35F8F8F
:1014B000114B1B68BFF35F8F00221A6081F3108805
:1014C00020BF0499059A0D4B5B6A9A42E3D80B48FA
:1014D000806A884203D29A42DBD00123DCE70123F1
:1014E000DAE7C046804F0010AC4C001004500010EA
:1014F000C84C00107D0A0010E406002000400540A2
:1015000070B504000D0000F0D9F802000B1E0ADBD4
:10151000200029008018594100290ADB00290CDB32
:10152000FFF770FF70BD084B084A09483F2100F0E3
:10153000BFFE012040420749F0E7034B034A04483D
:101540003F2100F0B5FEC046AC4C00100450001026
:10155000C84C0010FFFFFF7F10B5FA229200002355
:10156000002102F0A5FEFFF7CBFF10BD70B584B0DF
:1015700005000C00EFF30583002B1ED1FFF7B6FD2D
:10158000002302930193224B00932A002300FFF7CC
:10159000C3FD061E23DD20BFFFF7A8FD3100FFF7C6
:1015A00071FE1C4B5B6A9C422DD81A4A926AAA4271
:1015B0002CD29C4225D0012026E0164B5B6A994232
:1015C00009D8144A926A824207D2994201D0012076
:1015D0001AE0002018E0002016E0012014E00D4B76
:1015E0005B6A9C4209D80B4A926AAA4207D29C4283
:1015F00001D0012008E0002006E0002004E00120E6
:1016000002E0002000E0002004B070BD0120FBE7F4
:101610007D0A00100040054070B5EFF305801038DA
:10162000EFF3108C72B6194B1B68002BFBD0BFF385
:101630005F8F01221300834015494B6315490B60EE
:10164000154909780C00C440224213D0104A546A4C
:10165000124A8500AA58944205D3114AAA580E4C42
:101660009943217007E00A4A031D9B00995899503D
:10167000002200E00022BFF35F8F044B00211960BD
:101680008CF31088002A00D0904770BD280100D04C
:10169000004005403C70054002070020E80600209D
:1016A0003004002010B50100024A034B1800FEF779
:1016B00003FF10BDC850001000070020044B5B6AF8
:1016C000034A906A1900536A9942F9D17047C0469B
:1016D00000400540084B5B6A01E0074B5B6A8B42A8
:1016E000FBD301E0044B5B6A8B4203D1024B9B6A44
:1016F0008342F7D37047C0460040054070B50400F0
:101700000E00EFF3108572B61B4B1B68002BFBD04D
:10171000BFF35F8F002E1CD02000FEF7BFFF174BDA
:1017200083420BD019002000FEF7C0FF01212000EA
:10173000FEF7ACFF0123A340114A1360114BA40034
:10174000E650BFF35F8F0C4B00221A6085F31088C0
:1017500070BD0C4BA2000021D1500122A2400A49C9
:101760000B7893430B7005492000FEF7C9FF002159
:101770002000FEF78BFFE4E7280100D019160010C7
:10178000386005403004002002070020F0B5DE4636
:1017900000B584B00400150001921E000293FFF70B
:1017A0008DFF03958E4202D84ED185424CD9EFF37E
:1017B000108B72B6274B1B68002BFBD0BFF35F8FDB
:1017C000254A17780125A540EBB23B431370234B04
:1017D0005D63221D92000199D150214AA100029817
:1017E00088501B6A2B4212D11C4B1B6C2B4208D019
:1017F0000020BFF35F8F174B00221A608BF3108815
:1018000023E0184B184A1948C52100F051FDFFF795
:1018100055FF8E4214D802D1039B834210D80E4B41
:101820001B78BB420ED00D4B1D625D631F22224010
:10183000012393400E4A1360074B1F700120D8E725
:101840000020D6E70120D4E7012004B080BCBB46CD
:10185000F0BDC046280100D002070020004005402E
:10186000E8060020EC5000105451001010510010F8
:1018700080E200E0EFF3108C72B60B4B1B68002B7C
:10188000FBD0BFF35F8F01238340084A13620849EE
:101890000A789A430A70BFF35F8F034B00221A60E5
:1018A0008CF310887047C046280100D000400540E6
:1018B0000207002010B500291DD0037B99421AD8D9
:1018C00004684B005B18033BE418002919D0002A78
:1018D0001DD0914221D0002A25D0037B9A4222D8E4
:1018E000006853009B18033BC318997021780029A6
:1018F0001FD1227010BD104B104A1148682100F012
:10190000D7FC104B104A0E486F3100F0D1FC0F4B42
:101910000D4A0B48702100F0CBFC0D4B0A4A0848D9
:10192000712100F0C5FC044B044A0548682100F011
:10193000BFFC59702270DDE7DC4D00105C520010D6
:10194000F84D0010444E001048520010504E001048
:101950005C4E001070B506000D001400002914D074
:10196000002A14D0436880689847002806D02200D7
:1019700029003000FFF79EFF280007E02A00210021
:101980003000FFF797FF200000E0100070BD080056
:10199000FCE7000010B50023437301338373037B1E
:1019A000C3730123027B9A4213D9002B0BD0027B15
:1019B000934208D801685A00D218033A8A180133B2
:1019C000DBB25370EEE70C4B0C4A0D48682100F077
:1019D0006FFC002A09D0924207D8016853009B1877
:1019E000033BCB1800225A7010BD034B034A044836
:1019F000682100F05DFCC046DC4D00105C52001018
:101A0000F84D001010B5017342608360FFF7C2FF0C
:101A100010BD000070B50400081E00D170BD002983
:101A200031D0237B99422ED822684B005B18033BB0
:101A3000D3185A78002AF1D02BD0237B9A4228D889
:101A4000216853009B18033BCB185D780021597027
:101A5000002824D0237B984221D8216843001B18FA
:101A6000033BCB180021597001002000FFF772FFE3
:101A7000060029002000FFF7CDFF02003100200002
:101A8000FFF768FFCAE7094B094A0A48682100F0D6
:101A90000FFC064B064A0748682100F009FC034B7F
:101AA000034A0448682100F003FCC046DC4D0010E6
:101AB0005C520010F84D001070B505000C001600C7
:101AC00000292ED033D0037B994230D803684900D7
:101AD000091903395B185A78002A2ED19A78002AFE
:101AE00031D11978FFF796FF0300002E0AD0EA7B68
:101AF000002A2ED1AA7B002A03D1EA7B002A3AD100
:101B0000AC73EC73002B3CD1002C4DD02B7B9C4252
:101B10004AD82A6863001B19033BD31800225A7065
:101B200070BD244B244A2548382100F0C1FB244BCA
:101B3000244A2548682100F0BBFB244B1E4A1F485D
:101B40003A2100F0B5FB224B1B4A1C483B2100F018
:101B5000AFFB002A09D0297B8A4206D82E685100A3
:101B60008A18033AB2185470C4E7154B154A164840
:101B7000682100F09DFB174B0F4A1048422100F0EE
:101B800097FB002B0AD02A7B934207D82A68430090
:101B90001B18033BD31800229A70B5E7084B094A7B
:101BA0000948682100F084FB054B064A0648682175
:101BB00000F07EFB7051001034520010785100107C
:101BC000DC4D00105C520010F84D0010B0510010B8
:101BD000D8510010204F001070B504000A00457B5A
:101BE0002900FFF769FF6073280070BD70B504001D
:101BF000002966D0437B8B420ED0002911D0037B95
:101C000099420ED805684B005B18033BED18AB7882
:101C1000002B0CD1002055E00121FFF7DDFF012052
:101C200050E0294B294A2A48682100F041FB002B4B
:101C30001FD0027B93421CD800685A00D318033B84
:101C4000C218C35C8B421AD0002B1BD0227B93425C
:101C500018D820685A00D318033BC01843788B4229
:101C600016D0002BF0D11B4B1B4A1C486B2100F0F7
:101C70001FFB154B154A1648682100F019FB6B78BD
:101C8000137007E0104B114A1148682100F010FB57
:101C90006B7843700023AB706B7001222000FFF75C
:101CA0000BFF0200617B814205D02000FFF752FE4E
:101CB0006073012006E00A4B074A0848712100F0D2
:101CC000F7FA002070BDC046DC4D00105C520010D9
:101CD000F84D0010D04B00101C520010785100102D
:101CE000FC510010F0B5D6464F464646C0B505003B
:101CF0000C00052000F09CF9060060088019210006
:101D000001F09AFC070043009946814405214846AA
:101D100001F092FC80463B1A9A46284B9C4224D8FC
:101D200070008019264901F087FC441C4346023BA1
:101D3000A34221D32B680022DA6629680B6804329B
:101D4000534002321A4080235B010B431A602B6818
:101D50005246DA612B6842461A624B464F2B11D924
:101D60005021484601F068FC0DE0700080191549CB
:101D700001F062FC441CD9E7134B144A14485F215C
:101D800000F096FA01202A68A023D0502B681A0090
:101D90007C32DB6F5C402404240C80235B01134302
:101DA0001C602B680122DA663900300001F044FC27
:101DB000E0BCBA46B146A846F0BDC0463F420F005F
:101DC0008096980040787D0168520010C85200103B
:101DD0008852001010B5114B98421DD01022104BA4
:101DE0001A60104B1A60104B9B6814009C43231E12
:101DF000F9D104710268D46602686624FF34146065
:101E00000268D3630268936302688833633CFF3CD3
:101E1000D450FFF767FF10BD0822E0E7AC020020B6
:101E200000E0004000F0004000C00040F8B5DE4691
:101E300057464E464546E0B506000F0015000A9A83
:101E400093424ED31A0E92461B0298460A9A0023DA
:101E50004046514601F02EFC81467400A419A400AE
:101E60002E4B9C4664446368834200D26060331FFB
:101E7000DBB29B46012B3AD9C0239B01234380222E
:101E800012011A60264BB200D158002905D05869BA
:101E900001F0D2FB01300138FDD16D0123685D40B6
:101EA000E0222A4080235B0123431A605A46012A1C
:101EB00028D980239B012343802212011A604B46BC
:101EC00063604A4600234046514601F0F3FB144B41
:101ED000B60098510120F0BCBB46B246A946A046C8
:101EE000F8BD104B104A11482D2100F0E1F9012FE7
:101EF000C2D1C0239B01234303221A60A368DB07DE
:101F0000FCD5CAE72168794003220A401A60A36819
:101F10000125BD401D42FAD0CBE7C04600800040FD
:101F200048040020DC52001034530010F05200101E
:101F300030B583B00C2000F017F9FEF79DFA0028A9
:101F40000DD0002304E02E4A99002E48885001331A
:101F5000092BF8D92A4B2C4A5A6203B030BD2B4BBF
:101F600000229A6700F008F9294B01221A60274BDA
:101F70005B6C012BFBD1274B03221A60234B9B6B1D
:101F8000012BFBD1013300930433234A0121234861
:101F900000F054F805230093214A0121214800F064
:101FA0004DF8214B0093002202210420FFF73EFF51
:101FB0001E4D00952B00002201210520FFF736FF62
:101FC000104C00942300002200210720FFF72EFF71
:101FD00000942300002200210820FFF727FF0A4B6E
:101FE00000932300002200210920FFF71FFF009526
:101FF0002B00002200210620FFF718FFADE7C046A6
:1020000048040020006CDC021BB700000080004088
:102010003CB0004030B00040002F685900800240C2
:10202000008C864700C00240001BB7004059730770
:10203000014B8000C058704748040020F0B5C646E8
:1020400000B504000D00170098460C2001F0F4FACA
:102050000600394BFA18394B9A4241D843011B1AF2
:102060009901C91AC90009188901380001F0E4FA78
:102070000200103A98235B009A4237D84346013B4E
:10208000062B39D8069B013B062B35D83F09B742B2
:1020900038D343461E04069B1B031E432368002BB4
:1020A00036DB274B9C4244D080235B01254A1360DA
:1020B000254A1360254A926819009143FAD1256098
:1020C000A060221DC0239B01134321221A602268B5
:1020D000002AFCDAE66008221A6080BCB846F0BD2F
:1020E0001B4B1C4A1C48112100F0E2F81B4B194AFB
:1020F0001948192100F0DCF8194B164A16481C2122
:1021000000F0D6F8174B134A1348232100F0D0F8FB
:1021100022683F231340AB42C3D1A3681B051B0DAC
:102120008342BED1E368EE22D2021340B342B8D15B
:10213000D3E780239B01B9E780E84BD380F8A9322D
:1021400000C0024000E0004000F0004000C000403D
:102150004453001068540010A4530010E4530010BE
:10216000005400104C54001080239B000343014A8C
:10217000D362704700800540064BAA2212011A6004
:102180002F22DA60044B054A1A60024B5B68002B71
:10219000FBDA7047004002400060024000B0FA00E5
:1021A00070B504000D000620FFF742FFC0002900B3
:1021B00001F042FAC60908D00E4B9E4217D87F2381
:1021C0000340013335005E0800E001256562A66228
:1021D0002C3480239B01234300221A600620FFF742
:1021E00027FF8000A901891901F026FA70BD002699
:1021F000014DEBE7FEFF0000FFFF0000002909D0C2
:102200000A22064B9C46604443425841044B40001E
:10221000C252704780225200F3E7C0460080FCBFE4
:10222000F806002070B505000C000620FFF700FF3F
:10223000002829D0164B9D4227D08022D203154B6F
:102240001A60154B1A60154B9B6811009943FAD11F
:1022500000212800FFF7D2FF21002800FFF7A0FF90
:1022600029002C31EB6A602253400E321A40802341
:102270005B010B431A600A4B2B6380239B010B43CA
:1022800010221A600323AB6470BD80221204D6E7CB
:102290000080034000E0004000F0004000C000402B
:1022A0000103000000BEFDE710B5FFF7FBFF0000D3
:1022B00030B583B00D001900002A0DD0084B002A5C
:1022C0000CD0084C019200932B000200200002F079
:1022D00001FA0120FFF7E6FF034BF0E7024AF0E7BF
:1022E00074540010845400108054001070B52B4BAF
:1022F0002B4A1A602B4B2C4A1A602C4B9A682A4B9B
:102300009343FAD12A4C01E008CC9847294B9C42D0
:10231000FAD3FFF70DFE234B274A1A60234B9B6825
:10232000DB43DB01FAD1254B40229A675A671A67D3
:10233000DA66234C09E0234B234A24488621FFF721
:10234000B7FF2000FEF73EFB0834214B9C4209D228
:102350002368002BF5D0012BEDD12000FEF73FFBC9
:102360000834F2E71B4DA9681B4CC022200002F084
:1023700059F8AC60EFF30583002B00D000BEFEF7E8
:10238000B5F8FEF709FBFEF791FE144C01E008CC0E
:102390009847134B9C42FAD370BDC04600E0004002
:1023A000BFCDFBFE00F00040FE7F3C0000C00040BF
:1023B0000003002010030020FFFFFF0100F0014098
:1023C000F8020020B45400102C550010D454001012
:1023D0000003002000ED00E00000002010030020BA
:1023E000140300200FB400B583B0084802F042F98E
:1023F000049B002B07D005A90191180002F04AF9AF
:10240000034802F037F90120FFF74CFF1855001080
:1024100028550010704710B5002802D00B68496895
:10242000984710BD0100002007E083001B185B00E7
:10243000501C08601078C01830380A681378303B98
:10244000DBB2092BF1D97047F0B5DE4657464E4650
:102450004546E0B583B093461F000C9B9A460D9C01
:102460000E9B99460F9B9B0703D0B8460F000600B2
:1024700022E00192A34688464E46B9460700B44280
:1024800007D2551C4B4641462020B84701342A004C
:10249000F5E73D004F465C46019B9B46B1464646EC
:1024A000B84637002E0007E0013C551C5346185D26
:1024B00043463900B0472A00002CF5D135003E00D4
:1024C00047460F9B9B0707D4100003B0F0BCBB46E8
:1024D000B246A946A046F0BDB0464E46B9462F00CA
:1024E0005D46531BB342EFD2541C4B46414620205D
:1024F000B8472200F5E7F0B5CE46474680B585B02F
:10250000944698460C9D0D9C0EAB1B789946109AEC
:10251000119B129EB7071CD4002B0CD0F7070AD5CD
:102520004F46002F02D10C37374204D0013B02E066
:1025300030272F550134944201D21F2CF8D9F707C8
:1025400007D59C4205D21F2C03D830272F550134C4
:10255000F5E7F70615D5770505D4002C03D094428E
:1025600024D09C4222D00F9A102A2BD00F9A102AE6
:1025700030D00F9A022A35D01F2C02D830222A558B
:1025800001341F2C05D84A46002A31D02D222A5565
:102590000134039602930194009543466246FFF787
:1025A00053FF05B0C0BCB946B046F0BD621E012C59
:1025B00006D00F9F102F01D01400D4E7023CD2E7C1
:1025C0001400D0E7B206D1D41F2CCFD878222A55D8
:1025D0000134D1E7B206CCD51F2CCAD858222A55CF
:1025E0000134C9E71F2CC7D860322A550134C3E72C
:1025F000720703D52B222A550134CAE73207C8D502
:1026000020222A550134C4E7F0B5DE4657464E462F
:102610004546E0B593B081468A46089209931CABC3
:1026200010CB1B789B461E9D219B9846002C03D106
:10263000102342469A4390468023DB0046461E40C4
:1026400042461A4212D0002C22D000260EE0303131
:10265000CBB2771C0AAA93552900200000F0ECFFAA
:10266000AC4216D31F2F14D83E00040029002000CE
:1026700000F0E2FFC9B20929E9D943469B0605D516
:1026800041235B18DBB20A3BDBB2E2E76123F8E7E8
:10269000270043460693209B05931F9B04930395B5
:1026A0005B46029301970AAB0093099B089A514637
:1026B0004846FFF720FF13B0F0BCBB46B246A94620
:1026C000A046F0BDF0B5DE4657464E464546E0B55D
:1026D00095B0089009910A920B931E9E1F9C20AB07
:1026E0001B789B46229B9946239D269B9A46330046
:1026F000234303D1103352469A4392468023DB0092
:1027000057461F4052461A4219D0330023432DD05A
:10271000002714E03032D3B27A1C90460CAAD3556D
:102720004A462B003000210000F0C4FFA5421FD80C
:1027300019D043461F2B1BD8474606000C004A46BB
:102740002B003000210000F0B5FFD2B2092AE1D9F8
:1027500053469B0605D541239B18DBB20A3BDBB2EF
:10276000DAE76123F8E7B145E3D901E000239846B1
:1027700053460693259B0593249B04934B46039352
:102780005B460293434601930CAB00930B9B0A9A62
:1027900009990898FFF7AFFE15B0F0BCBB46B246EA
:1027A000A946A046F0BD0000F0B5DE4657464E46AD
:1027B0004546E0B591B083468A460C9298461A9CED
:1027C00008941B9D099522002B002000290001F090
:1027D000FCF9002800D0E5E001225242D74B20004E
:1027E000290001F0EDF9002800D0DBE0012252427F
:1027F000D34B2000290001F0CDF9002800D0D1E012
:1028000000220023089E3000099D290001F0C2F932
:10281000002800D0DDE0089A099B069207938023E8
:10282000DB001E9A1A400D921E9A1A4201D106230D
:102830001C930698079904000D000A000600024345
:1028400000D1D1E0080D4005400DBE4CA4466044C7
:102850000A03120BBC4B13431F0001F0C9F9BB4A1A
:10286000BB4B01F054F9BB4ABB4B01F029F9040002
:102870000D000022B94B3000390001F018F9B84AB8
:10288000B84B01F044F902000B002000290001F0D0
:1028900017F901F0C5F9814601F0AAF904000D000D
:1028A000B14AB24B01F033F90022B14B01F008F903
:1028B00001F0B6F90600AF4AAF4B2000290001F045
:1028C00026F904000D00300001F092F9AB4AAC4B40
:1028D00001F01DF902000B002000290001F0E7F8CB
:1028E00004000D0002000B0001F011F90A900B9199
:1028F000A44BF31800261F0522002B0020002900FE
:1029000001F0DEF80E900F9122002B0000208021B4
:10291000C90501F0CCF804000D0000229A4B0A987A
:102920000B9901F0D6F80022984B01F0C9F802008B
:102930000B000A980B9901F0CCF80022944B01F09F
:10294000BFF802000B000A980B9901F0C2F80200D0
:102950000B002000290001F0B3F802000B000E98D4
:102960000F9901F0B6F80022774B01F0A9F8320078
:102970003B0001F0CCF806000F0004000D00069AA1
:10298000079B01F01DF9002830D001235B429C46D3
:10299000E14400227D4B3000390001F09AF8040038
:1029A0000D0023E01E9B04931D9B03931C9B02932D
:1029B000089A099B0092019343460C9A5146584647
:1029C00000F0FCF811B0F0BCBB46B246A946A046E8
:1029D000F0BD0023002406930794069680231B066F
:1029E0009C46654407951AE7002399464B46633396
:1029F000C62B1ED804261E9B1B0526D52B00234361
:102A00000FD0644A644B0698079901F0D1F800286A
:102A100079D00022614B0698079901F0BBF8002895
:102A200071D01C9B4B4506DD4A469B1A013B1C930B
:102A300003E00526DFE700231C938023DB001E9ABA
:102A40001A431E920026002399461D9B9E4264D283
:102A50009F1B02231E9A1A400A921E9A134202D00A
:102A6000002E00D000274B46002B07D022002B0061
:102A70000698079901F02DF806900791002200238F
:102A80000898099901F086F8002848D1444B1E9A0D
:102A90001340049303971C9B0293069B079C00938F
:102AA000019443460C9A5146584600F087F8002E90
:102AB00000D187E71E9B9B063DD54525441C434618
:102AC000020051462800D8474A46D317D2185A4028
:102AD00005230593013E0496002303930A330293D2
:102AE0004B46DB0F01930092434622005146584665
:102AF000FFF78AFD0A9B002B00D163E702005F46C7
:102B00000C9E1D9D54E01C9B002B9ED00D9B002B0A
:102B10009BD01C9B013B1C9397E7002799E7069CE1
:102B2000079D2200290080200006844661440B0096
:102B300006920793AAE76525C0E7C046FFFFEF7F2F
:102B4000FFFFEFFF01FCFFFF0000F03FFB799F500C
:102B50001344D33FB3C8608B288AC63F0000F83FB8
:102B600061436F63A787D23F71A379094F930A40EE
:102B70000000E03F1655B5BBB16B0240EF39FAFEDD
:102B8000422EE63FFF03000000002C4000002440DE
:102B9000000018402D431CEBE2361A3F80842E4182
:102BA000FFF7FFFF541C434651462020B847220040
:102BB000931BAB42F6D3100004E7C046F0B5DE46E7
:102BC00057464E464546E0B595B006900791934668
:102BD0009946209F1E9A1F9B1000190000F0F5FFD8
:102BE000002831D101225242BF4B1E981F9900F09C
:102BF000D1FF002837D101225242BC4B1E981F99A9
:102C000000F0DEFF00283DD10022B94B1E981F992D
:102C100000F0D6FF002850D10022B64B1E981F9915
:102C200000F0B8FF002848D1002200231E981F9909
:102C300000F0B0FF002850D100239846229B5B058E
:102C400000D4B6E0002458E0229B0393219B02931A
:102C500003230193A84B00934B465A4607990698C5
:102C6000FFF7F2FB0EE1229B0393219B02930423C7
:102C70000193A24B00934B465A4607990698FFF7DB
:102C8000E3FBFFE00423229A1A4022990B4210D062
:102C90009B4B002A0FD00422229903912199029183
:102CA000019200934B465A4607990698FFF7CCFBD2
:102CB000E8E0944BEDE70322EEE7229B0493219B8F
:102CC000039302971E9B1F9C009301944B465A4608
:102CD00007990698FFF768FDD4E01E9A1F9B002015
:102CE000002100F0E4FE1E901F9101239846A5E705
:102CF0000CAB30221A55013F01341F2C01D8092F8B
:102D0000F6D81E981F9900F08BFF050000F070FFA9
:102D100002000B001E981F9900F0C9FE7A4BFA00C2
:102D20009B181A685B680A920B9300F0F0FE0890FB
:102D3000099100F099FF060000F056FF02000B0019
:102D40000898099900F0B3FE0890099100226F4B92
:102D500000F036FF00282ED00136300000F044FF8E
:102D600002000B000A980B9900F01AFF002801D00E
:102D700001350026002F2CD1280000F039FF020079
:102D80000B001E981F9900F092FE06000F00002213
:102D90005E4B00F0FFFE002846D100225B4B300066
:102DA000390000F00DFF00283ED1EB073CD501357E
:102DB0003AE0062746E70022544B0898099900F0AC
:102DC000E9FE0028D6D1002E01D0F307D2D5013676
:102DD000D0E7AA461F2C11D8013F0A21300000F08D
:102DE0002BFC651C30310CAB19550A21300000F06A
:102DF00023FC092E0ED906002C00EBE755461F2CAC
:102E00000CD87B1E002F09D00CAA302111551F00B1
:102E10000134F4E72B0055461C00F0E71F2C03D8C3
:102E20000CAB2E221A5501341F2C10D80A21280071
:102E300000F0DAFB661C30310CAB19550A21280072
:102E400000F0D2FB051E01D03400EDE7340003236F
:102E5000229A1340012B1CD01F2C06D84346002B6E
:102E600032D00CAB2D221A550134229B0393219BA7
:102E7000029301940CAB00934B465A46079906986F
:102E8000FFF7E2FA15B0F0BCBB46B246A946A04631
:102E9000F0BD219B002B13D04346002B02D10C33F5
:102EA00013420FD0219B013B2193190003E00CAB8F
:102EB00030221A5501348C42CED21F2CF7D9CBE7E1
:102EC0002199F8E72199F6E7229B5B0704D50CAB23
:102ED0002B221A550134C8E7229B1B07C5D50CAB22
:102EE00020221A550134C0E7FFFFEFFFFFFFEF7FFD
:102EF00065CDCD4165CDCDC1485500104C55001074
:102F00003C55001044550010F05600100000E03F02
:102F1000F0B5DE4657464E464546E0B593B082468C
:102F20008B4690461193002900D100E300275446B8
:102F3000119B1878002800D1FCE2252809D07D1CBF
:102F400043463A005946A047119B013311932F0085
:102F5000EEE7013311930025119A11780B00203B05
:102F6000D8B2102803D88300C248C3589F460B002C
:102F7000303BDBB2092B2CD92A292FD000230A930E
:102F8000119B1A782E2A39D000239946119A13786A
:102F9000683BD9B2122976D88B00B749CB589F46E7
:102FA00001231D4301321192D6E702231D43013252
:102FB0001192D1E704231D4301321192CCE708237B
:102FC0001D4301321192C7E710231D4301321192B4
:102FD000C2E711A8FFF726FA0A90D1E71C9B1A1D39
:102FE0001C921B68002B04DB0A93119B0133119385
:102FF000C6E7022215435B420A93F6E78022D2001D
:1030000015435A1C11925A781300303BDBB2092B3E
:1030100004D92A2A07D000239946B7E711A8FFF759
:1030200001FA8146B2E71C9B1A1D1C921B68002BFB
:1030300004DB9946119B01331193A7E70023F8E7BE
:1030400080235B002B43511C119152786C2A01D0D4
:103050001D0018E0C0239B001D430131119112E0B7
:1030600080232B43511C11915278682A01D01D00F6
:1030700009E0C0231D430131119104E080235B006E
:103080001D4301321192119B1878672816D8252804
:1030900026D30300253BDAB2422A21D89300774A8F
:1030A000D3589F4680239B001D4301321192EAE7CB
:1030B00080235B001D4301321192E4E778280FD88A
:1030C00069280DD30200693AD2B2012393406C4AB9
:1030D00013420FD11A0600D503E25B0500D594E137
:1030E0007D1C43463A005946A047119B013311937A
:1030F0002F001DE7782809D0622838D06F2838D0F3
:10310000582838D010239D430A2600E0102658285E
:1031100033D0692803D0642801D00C2295436A0576
:1031200001D50122954369282AD0642828D0AA0510
:1031300000D5A7E0EA0500D5C0E06A0600D4D2E0D9
:103140001C9A111D1C911168FF220A4005950A9BCB
:1031500004934B4603930296002301930092434647
:103160003A0059462000FFF74FFA070027E00226F1
:10317000CDE70826CBE71026C9E720221543C8E78C
:10318000AA0520D4EA0550D46A0666D51C9A111DFA
:103190001C911168FF220A40D01711184140059573
:1031A0000A9B04934B4603930296D20F019200911F
:1031B00043463A0059462000FFF726FA0700119BC4
:1031C00001331193B4E61C9A073207218A43110098
:1031D00008311C91116853689C46DB170C930D93C2
:1031E0000C9A0D9B100048400E90624653400F937E
:1031F0000E980F990C9A0D9B801A99410E900F9181
:1032000008950A9B07934B46069304960023059363
:103210006346DA0F02920090019143463A00594604
:103220002000FFF74FFA0700C9E71C9A111D1C91F7
:103230001268D0171118414005950A9B04934B461C
:1032400003930296D20F0192009143463A005946E9
:103250002000FFF7D9F90700B1E72A0605D51C9A27
:10326000111D1C910023D25E96E71C9A111D1C9122
:10327000126891E75455001098550010E45500105D
:10328000419000001C9A073207218A43110008313F
:103290001C9108950A9B07934B46069304960023BE
:1032A00005930293536812680092019343463A00D3
:1032B00059462000FFF706FA070080E71C9A111D07
:1032C0001C9105950A9B04934B4603930296002399
:1032D00001931368009343463A0059462000FFF7D4
:1032E00093F907006BE72A0606D51C9A111D1C915D
:1032F00012681204120C29E71C9A111D1C91126805
:1033000024E746281AD01C9B0733072293431A0050
:1033100008321C9204950A9A03924A4602921A684D
:103320005B680092019343463A0059462000FFF73C
:1033300045FC0700119B01331193F9E520231D4340
:10334000E1E7672801D0472802D180231B011D43F4
:10335000452801D0472801D120231D431C9B07335A
:10336000072293431A0008321C9204950A9A03928A
:103370004A4602921A685B680092019343463A00FB
:1033800059462000FFF710FA0700119B01331193F3
:10339000CEE502231A002A4092462B421FD0012577
:1033A0001C9B1A1D1C927A1C9146187843463A00C1
:1033B0005946A0475346002B16D1119B0133119358
:1033C0004F46B5E5561C434659462020B8472B00CA
:1033D00032005D1C9C42F5D83C001700E0E7012359
:1033E0003A0027000A9CF4E74A46A1460A9C06E0F8
:1033F000571C434659462020C84735003A006E1CEA
:10340000AC42F5D84C469146D7E71C9B1A1D1C923E
:103410001E684B46002B00D1013B310001E0013119
:1034200013000A78002A02D05A1E002BF7D1891BFC
:1034300010918023DB002A001A4092461D4203D0DF
:10344000494501D94B46109302231A002A400B929A
:103450002B4205D03A00574623004C46994620E0BF
:103460003A00109B5F46B346260006E0541C4346D4
:1034700039002020B0472B0022005D1C0A99994298
:10348000F4D834005E46BB461095574623004C46A0
:10349000994606E01C000136551C43465946C8476C
:1034A0002A003078002804D0002FF4D0631E002CAE
:1034B000F0D117004C460B9B002B03D1119B01331D
:1034C000119335E50A9F109B06E0561C434659466A
:1034D0002020A0472B0032005D1C9F42F5D817002A
:1034E000ECE721232B431C9A111D1C9112680593B4
:1034F000082304934B460393102302930023019364
:10350000009243463A0059462000FFF77DF8070035
:10351000119B013311930BE57D1C43463A0059463C
:103520002520A047119B013311932F0000E50B4B81
:103530009A46FBE4A246474502D343465A1E00E0A2
:103540003A00434659460020D047380013B0F0BC3B
:10355000BB46B246A946A046F0BDC04615240010A1
:1035600000B585B002900391012104480093130037
:103570004A4202A9FFF7CCFC05B000BD1724001099
:1035800001480421014B1847C0020020B13500104A
:1035900010B5010018231B8814221088984710BD0D
:1035A00010B5010018231B8816221088984710BDFB
:1035B000F0B5C64600B507000E0000250123984669
:1035C00000E00135B5420AD2AC003C192068FFF793
:1035D000DFFF20600028F4D100239846F1E7404641
:1035E00080BCB846F0BD0000124A936F9B0815D20C
:1035F0009066D166002905D0FFE7FFE7FFE7516F2E
:10360000106F704704B580210906C2175140002889
:1036100000D0C84301F0BCF9002104BDF0B5146E20
:10362000556E576F166FFFF7E3FF146655665767C1
:103630001667F0BD000000D0114A936F9B0813D2AB
:1036400010665166002905D0FFE7FFE7FFE7516FDD
:10365000106F704704B5002801D00020C04301F06E
:1036600097F9002104BDC046F0B5146E556E576F32
:10367000166FFFF7E5FF1466556657671667F0BDCE
:10368000000000D094464A4A926F9208624601D2E6
:1036900028E0C046F0B5464E346E756E776F366FD3
:1036A00000F020F89446424A14665566576716673C
:1036B0006246F0BD94463E4A926F9208624601D23D
:1036C00054E0C046F0B53A4E346E756E776F366F83
:1036D00000F04CF89446364A1466556657671667EC
:1036E0006246F0BD002B24DB11D000293EDA00B584
:1036F000C943404200D1013100F038F8C94340428B
:1037000000D10131DB43524200D1013300BD002A18
:10371000EBD1002801D1002905D00020C90FC9072D
:1037200001D1C043410800B501F02AF9002200236D
:1037300000BD00B500290ADBDB43524200D1013352
:1037400000F014F8C943404200D1013100BDC94323
:10375000404200D10131DB43524200D1013300F03D
:1037600005F8DB43524200D1013300BD002923D1CB
:10377000002B18D1002A0CD0BC460D4F38667A6653
:1037800000210023FFE7FFE7FFE77A6F386F674606
:103790007047002801D00748010000B501F0F0F89B
:1037A0000022002300BD02000B0000200021704712
:1037B000000000D0FFFFFFFF002B00D0BFE0130C84
:1037C00028D1002AE7D080B4114F39667A66FFE726
:1037D000FFE730B4040C7B6F396F1B0423433B6657
:1037E0007A66FFE7FFE7FFE7C04684B27B6F3D6F75
:1037F0001B0423433B667A66FFE7FFE7C0460023CE
:103800002C042D0C7A6F386F00196941B0BC7047D9
:10381000000000D0F0B594460025140E01D112022C
:103820000835140F01D112010435940F01D1920013
:103830000235D40F01D152000135D40B0134254F8C
:103840007C66254C3C660E0C93B2FFE7FFE7FFE772
:103850003C6F6643360C7703BE467343DF0B5B0455
:10386000C01AB941130C7343DB18C91ACE0866435A
:10387000360CB64493B273431F0F1B01C01AB941F3
:10388000130C73431F0B1B05C01AB941860D8F0221
:103890003E436643360C092D24DB520A7243801ADC
:1038A0007703460A6643360C16235B1BDE40DF4077
:1038B000BF1964466643821B704604350633010017
:1038C000D940A840C01900D30131A24206D200233A
:1038D000F0BD0000000000D0FFFFFFFF121B013011
:1038E000F3D3F1E709277F1BFE406446A2B272437F
:1038F000801A00D20139220C7243130C1204821A6E
:1039000099410B007046043513370100F940A84077
:10391000801900D30131002B02D1A2420AD2F0BD9E
:10392000013000D30131121BFAD2013BF8D1A2427F
:1039300000D2F0BD013000D30131121BF7E7F0B522
:103940001C0C00D080E00CB400251C0A04D11B0222
:10395000160E3343120208351C0B04D11B01160F3F
:103960003343120104359C0B04D19B00960F334363
:1039700092000235DC0B02D192185B4101351C002C
:10398000971864410134464F7C66464C3C660E0CE9
:10399000FFE7FFE7FFE7C0463C6F6643360C77035F
:1039A000BE4697B27743C01B00D20139C01B00D27C
:1039B00001399FB27743C91BC91B170C77437E049B
:1039C000FF0B801BB941CE086643360C0C2D33DB50
:1039D000B644120B1F053A431B0B97B27743C01B2B
:1039E00000D201399FB27743C91B170C77433E04BD
:1039F0003F0C801BB941860D8F023E436643292749
:103A00007F1BFE400C3D7746AF40BF1930BCA2B2D1
:103A1000ABB272437343801A9941220C7243130C68
:103A20001204801A994102000B000137001BA941C2
:103A3000F9D2781E0021F0BD0C277F1BFE4077468F
:103A40007F0BAF40FF19E0E700245D1C07D0144F47
:103A50007D663966FFE7FFE7FFE7FFE73C6F95B25A
:103A60009EB265436643401BB141150C1E0C654375
:103A7000664336042F0C3E432D04401BB14199424E
:103A800004D202000B0020000021F0BD01D19042C1
:103A9000F7D3801A994101349942F2D3F6E7000036
:103AA000000000D0FFFFFFFF48404140484018B4ED
:103AB0001B4B5B68FC46019308BD04DF833D00108F
:103AC00018B4174B1B68FC46019308BD00DF8D3D01
:103AD00000109446134A926F920809D2624618B4B5
:103AE0000F4BDB68FC46019308BD0CDF454000101E
:103AF0000C4AF0B5146E556E576F166F6246FFF79D
:103B0000EEFF084A1466556657671667F0BD18B48D
:103B1000034B9B68FC46019308BD08DFE93E00109B
:103B2000E0040020000000D0FFB55040424050406B
:103B300059404B40594000E0FFB5154F4C00640D13
:103B400003D0BC4204D10C0314D80020090D090590
:103B50005C00640D03D0BC4204D11C030AD80022CF
:103B60001B0D1B0501264B4009D44B4003D58B424E
:103B700000D18242FFBD9942FCD19042FFBD0B4370
:103B8000DB1803431343F5D0C9434918FFBD0000B8
:103B9000FF07000000B5FFF7CFFF804100BDC04622
:103BA00000B5FFF7C9FF01D9002000BD012000BD0D
:103BB00000B5FFF7B9FF01D9002000BD012000BD0D
:103BC00000B5FFF7B1FF804100BD012040054A006C
:103BD000121804D85A00121801D80020704701208A
:103BE00070470020704700000021002805D1704771
:103BF000C1174840401AFAD0C90713B5064B1B68D5
:103C000098470CBC441CA2401005120B0349091B29
:103C100009051943114310BDE00500201F040000F1
:103C200010B54C00620D8023D218DB00D21A5B0560
:103C30007E2A10DD9E3A13DACC170903490819438E
:103C40005242D140640001341532202A05DAD040B6
:103C50000843604310BD002010BD0846604310BDFE
:103C6000C80FC018013810BD18B4044B5B6AFC467D
:103C7000019308BD24DFF54100100000E00400209E
:103C800070B513231C78012C14D0012C14DC022CE9
:103C900002DC1F4B1F4A93641F48FFF779FC1F4B40
:103CA000186070BD1A491B4A9800815001331F2BC0
:103CB000F8D9EAE70023FAE71948FFF771FC050095
:103CC0001848FFF76DFC023803789B007F2B19DD45
:103CD00010488022290000F0A5FB022CD7D1124BFE
:103CE0001A88B5231B029A4209D1104B1A88104B2F
:103CF0009A4204D10F4B1A880F4B9A42C7D000202A
:103D0000FEF770FB0D4B0E4A0E483221FEF7D0FA3B
:103D1000493D0010E00400204C330000E005002085
:103D2000534400005346000054380000D8380000C7
:103D3000494600009C3800005946000040570010DA
:103D4000E8570010A057001007B56046002800D1C2
:103D500000BE01880A0A0230DF2AFAD1C9B28208FD
:103D600004D3028840880004104300E00068024A3F
:103D70005050039007BD0000E00400200FB403BCC6
:103D80000CBCF0B50124E407634000E0F0B50C0D75
:103D9000CF0F661E3605891B640503D3C943404215
:103DA00000D30131640D03D0661CF60A07D0E41B72
:103DB00000207F00791C89078912803C24031D0D97
:103DC000DF0F6E1E36059B1B6D0503D3DB4352428E
:103DD00000D301336D0D03D06E1CF60A07D0ED1B26
:103DE00000227F007B1C9B079B12803D2D032F1B15
:103DF000661B58D4A446202E46DA20371400BC4057
:103E00001D00BD40F24033412A4380185941CB0F79
:103E100005D0C943C043002264425041514162462B
:103E20004D0D28D10D0D07D100281FD02419404178
:103E30004941013A0D0DF9D0640006D3013000D399
:103E40000131002C01D140084000013A0BD4941CF0
:103E5000E40A04D112051144DB071944F0BDD90767
:103E6000204B194300E0D9070020F0BD0029DDD127
:103E7000002CDBD1F0BD0132C6074008CD07284336
:103E80004908002EE1D0D9E73C2E29DA203E403700
:103E90001400BC4000D00124F24014431A00BB407F
:103EA0001C43D317ACE7AC46202F08DA20360400B9
:103EB000B4400D00B540F84039412843A5E73C2FF8
:103EC0000CDA203F40360400B44000D00124F84012
:103ED00004430800B1400C43C117EAE71000190081
:103EE000002494E70000F07FF0B50C0D661E360547
:103EF000891BE60A6405640D02D0651CED0A04D036
:103F0000002001210905803C2403A4461C0D671EE6
:103F10003F05DB1BE70A6405640D02D0651CED0A52
:103F200004D0002201231B05803C24037740644415
:103F300097B484B296B27443070C7E43150C6F435A
:103F400080B26843361802D3012000043F183004C1
:103F5000350C00197D41844688B29AB250430C0C4E
:103F600062431F0C7C438EB27E43921902D301261A
:103F70003604A4191604170C3618674101BC81B227
:103F80009AB25143040C62431B0C5C4380B2584309
:103F9000121802D30120000424181004130C401836
:103FA00063412D185E410020474106BC88B293B2A0
:103FB00058430C0C6343120C544389B251435B18B1
:103FC00002D301210904641819041A0C091862416A
:103FD0006D1856410020474118BCF902720D11437B
:103FE000F0026A0D1043ED020A0D03D16D19404134
:103FF0004941013B124E9B1B7600B3420ED26D002D
:1040000007D30130002671416646354301D140088F
:1040100040001B05C918E4072144F0BD0BDA013349
:1040200006D1013004D101314F0D01D04908F2E72A
:10403000E1070020F0BD013631050020EBE700006C
:10404000FF030000F0B51C0D671E3F05DB1BE70AF0
:104050006405640D02D0661CF60A04D00022012318
:104060001B05803C2403D0252D060026F6432E6632
:104070001E096E66CE0FF619B44649004F0D02D0E8
:104080007E1CF60A03D000200021403F3F033E1B68
:10409000B600B444013F7F05C91B49082E6F0136A5
:1040A00076089C02950D25437543ED137543AD13BA
:1040B00001356D10F603761B0CB4CC02450D2C4374
:1040C000A2B2B3B25A43270C7B43350C6F43A4B260
:1040D0006C431B1902D3012424043F191C041D0C3A
:1040E000A4187D4124196D41009A91B2ACB261438C
:1040F000170C7C432B0C5F4392B25A43A41802D393
:1041000001221204BF182204230C52187B41019C87
:104110006C431B19520ED9010A434401A01A81B203
:10412000B2B2514303145A43360C734387B27743F8
:10413000D617D21900277E4136049B191704160C96
:104140007F185E417316ED18F30100268033754128
:10415000A90F06D16400690AE8055B0A184309D271
:104160002FE00422944480337541A90AA8059B0AD4
:10417000184326D3404149412404009A019B0D0075
:104180005543641B4343E41A95B286B27543170C3A
:104190007E43030C5F4392B25A43B61802D3012206
:1041A0001204BF183204330C52197B4152429C4115
:1041B000002C02D40022013051414008CA071043AC
:1041C000490802B06246D7079210084BD218084B34
:1041D0009A4203D212058918C919F0BD0020002A9D
:1041E00001DC3900F0BD01331905F5E7FD030000DE
:1041F000FE070000002200B5203200F004F808009D
:1042000000BD000000220B150AD410B5944600F042
:1042100031F81414013400DA0021CB17144C204774
:104220000020002170476244343A0CD40C2A07DA8B
:1042300004009140904052422032D440214310BDAE
:10424000D843D94310BD203207D40C469440524283
:1042500020321141D040204310BD0800C917203240
:1042600003D452422032104110BD1800190010BD75
:10427000274200100A0DCC0F531E1B05C91A520508
:1042800003D3C943404200D30131520D03D0531C24
:10429000DB0A07D0121B00206400611C8907891209
:1042A000803A1203014BD21A70470000FF0300004E
:1042B00051434343C9188C46110C83B24B4310B48D
:1042C000040C614392B280B2504362431C041B0C45
:1042D000001910BC59411304120CC018514161441B
:1042E0007047000070B513231E782A48FFF758F96D
:1042F0000500012E11D0012E09DDAB1E1B789B009D
:104300007F2B40DD24488022290000F08BF82348D1
:10431000FFF73EF9224B186070BD1F485422290058
:1043200000F080F81F4B1A881F4B9A421CD1A7231C
:104330009B011A881D4B9A4216D11D4B1A881D4BA2
:104340009A4211D11C4B1A8894239B019A420BD19B
:104350001A4B1A881A4B9A4206D11A4B1A681A4BF2
:104360009A4201D1152307E01848FEF73BF8184C94
:10437000094A99008C5001331F2BF8D9144B064A77
:104380001362D361B7E7134B134A14484221FDF778
:104390008FFFC04653460000E40500204C33000068
:1043A000E0050020EE290000C40F0000C20D00004F
:1043B000962B0000C0B50000182B0000CC2A00008E
:1043C00010B50000FC2C000051ED876480540010F3
:1043D000E1430010FC5700107858001030580010CE
:1043E00007B56046002800D100BE01880A0A0230E5
:1043F000DF2AFAD1C9B2820804D3028840880004B7
:10440000104300E00068024A5050039007BD0000CE
:10441000E405002001480421014B1847D002002088
:10442000B1350010014B5B6818470000D002002036
:1044300010B50300080011001B68984710BD00006C
:10444000F8B507000D001600437D002B02D00024B4
:1044500000200CE003681100280098472DE03B7D08
:1044600010E03B68154802219847601C0134B442B3
:1044700014DA002CF3DD2B19013B1B780D3B5A425B
:104480005341DBB22A5D0A2AF0D1002BEED1A042C3
:10449000E7DA3B68211A28189847E2E7B04203DAC6
:1044A0003B68311A28189847002E06DDAD19013DEA
:1044B0002B780D3B5A4253413B75F8BD0059001013
:1044C00070B505000368002B16D00C4B1C6805E086
:1044D000290004C92000FFF7B3FF2469002C09D08C
:1044E0002368002BF9D0064B1B68002BF0D0A342A9
:1044F000F3D1EDE700232B6070BDC046B00400206F
:10450000B404002070B505000C000B68802B05D0AA
:1045100023685A1C2260E418257170BD0800FFF75B
:10452000CFFFF5E710B5FDF7C9F802000B1E0BDB56
:104530000D48002112184B41002B0BDB002B0DDB2B
:104540000A4800F02DFA10BD094B0A4A0A483F21DB
:10455000FDF7AEFE01225242084BEFE7044B054A3D
:1045600005483F21FDF7A4FE40420F00F80200205D
:10457000AC4C0010E8580010C84C0010FFFFFF7F43
:1045800010B5024800F0F4F910BDC046F802002052
:10459000F0B5CE46474680B583B006000D00904684
:1045A0001C00FFF7BFFF81466B1C05D0002C08D014
:1045B000194F1A4B1C6807E0300000F0A7F90500FE
:1045C000F4E7174FF5E72469002C17D02368002B78
:1045D000F9D0144B1B68002B01D0A342F3D12A0061
:1045E00031002000B8474346002BECD06B46D91D64
:1045F0000A230B7001222000B847E4E74B46002B4A
:1046000007D16B1E9D41E8B203B0C0BCB946B046AD
:10461000F0BDFFF7B5FFF4E731440010B00400200F
:1046200041440010B4040020094A01E010331A008C
:104630001368002B08D08342F8D1002907D1036901
:1046400013600023036102E0002900D0106070476E
:10465000B004002010B5064B1C6801E0984724699F
:10466000002C03D06368002BF8D1F8E710BDC046DA
:10467000B004002070B5050000F048F904000023E4
:10468000012201002800FFF783FFFFF7E3FF20006E
:1046900070BD000070B5A2B004000E00FFF742FF2D
:1046A0000500002301930A483300220001A9FEF708
:1046B00057FF040001A8FFF703FFFFF7CBFF002D12
:1046C00002D1200022B070BDFFF75AFFF9E7C046C3
:1046D000054500100FB400B583B004A901C90191CC
:1046E000FFF7D8FF03B008BC04B0184710B500F0BE
:1046F000F9F8012010BD0000F0B583B005000E00F0
:1047000000240FE06B46D91D0D230B7000200028FC
:1047100016D193699B06FCD40B78136001300131EC
:10472000F5E70134B44219DA0D4B1A682F5D0D4BD1
:10473000D31859424B410C495B005B5EBB42E1D050
:104740006B46D91D0F7000200028EAD193699B06A3
:10475000FCD40B78136001300131F5E703B0F0BDF4
:10476000FC0600200080FCBFF8060020F0B583B0F6
:1047700005000E00002704E06B4607331B783B70F2
:104780002700B74215DA174B1A68936910242100E5
:1047900019401C420DD17C1CEF196B46D81D002915
:1047A000EAD19369DB06FCD4136803700131013050
:1047B000F5E70D4B1B68002B0CD00A4B1B685022F1
:1047C0009A63190034315B6B183A1A4080235B01FD
:1047D0000B431A60002F02D0380003B0F0BD033F36
:1047E000FAE7C046FC0600204004002010B5064B46
:1047F0001B68002B06D0054A126800219163044A09
:104800001068984710BDC04640040020FC060020F8
:104810004404002070B504000E001C4B1B681C4AA9
:1048200098184242504114300500002C03D0194A18
:104830001268002A06D0002C19D0164B1C60164BAB
:104840001E6070BD1549FBF731FF01212800FBF701
:104850001DFF0E4B1B6850229A63190034315B6BAD
:10486000183A1A4080235B010B431A60E5E7094AB6
:104870001268002AE1D000229A6300212800FBF789
:1048800005FF06492800FBF73BFFD6E7FC060020A2
:104890000080FCBF4004002044040020ED470010CD
:1048A00070B50D001C000D4B1860002A0BDA002CAF
:1048B0000EDA0A4B18682900FDF7B4FC08480121FC
:1048C000FFF7B2FE70BD02211000FBF72DFEEEE7F0
:1048D00002212000FBF728FEEBE7C046FC06002083
:1048E000E002002010B5064B1B78064B1B78E12137
:1048F0000123002249020448FFF7D2FF10BDC04641
:1049000064590010685900100040034010B5830737
:104910000AD00300032102E001330B4205D01A78CC
:10492000002AF9D1181A10BD030019680C4A0D4C61
:104930008A188A4322420FD15968094A04338A18D7
:104940008A43224208D15968054A04338A188A43A7
:104950002242F1D000E001331A78002AFBD1E1E7CE
:10496000FFFEFEFE80808080F8B5C046000000009B
:1049700001B40248844601BC604700BFC901002061
:1049800001B40248844601BC604700BF1502002004
:1049900001B40248844601BC604700BF15020020F4
:1049A00001B40248844601BC604700BF9501002065
:1049B000525032303430205072656D69657200009B
:1049C00006005250197CA0B6B049001064656C74A2
:1049D00061203E3D202D323034382026262064656B
:1049E0006C7461203C3D2032303436202626202154
:1049F0002864656C7461202620312900433A5C5696
:104A00005341524D5C73646B5C7069636F5C706999
:104A1000636F2D73646B5C7372635C7270325F637F
:104A20006F6D6D6F6E5C68617264776172655F69EE
:104A300072715C6972712E63000000002128646548
:104A40006C7461203E3E20313175290063757272AD
:104A5000656E74203D3D205F5F756E68616E646CAD
:104A600065645F757365725F697271207C7C206319
:104A7000757272656E74203D3D2068616E646C6570
:104A8000720000006972715F68616E6465725F63D5
:104A90006861696E5F667265655F736C6F745F688D
:104AA000656164203E3D2030000000007674616244
:104AB0006C655F68616E646C6572203D3D205F5F70
:104AC000756E68616E646C65645F757365725F694D
:104AD00072710000212828282875696E747074721C
:104AE0005F7429767461626C655F68616E646C6581
:104AF0007229202D20282875696E747074725F7475
:104B0000296972715F68616E646C65725F63686168
:104B1000696E5F736C6F747329202D2031292573A2
:104B2000697A656F6628737472756374206972712F
:104B30005F68616E646C65725F636861696E5F7304
:104B40006C6F74292900000030783163203D3D20CE
:104B5000282A696E7374293E3E31317500000000C9
:104B600021657863657074696F6E207C7C20657840
:104B700063657074696F6E203D3D206E756D202BEE
:104B800020565441424C455F46495253545F495266
:104B90005100000066616C736500000069735F730B
:104BA00068617265645F6972715F7261775F686185
:104BB0006E646C657228736C6F745F68616E646C90
:104BC00065722900657863657074696F6E00000016
:104BD000666F756E640000006972715F6164645F86
:104BE0007461696C5F746F5F667265655F6C697331
:104BF00074000000696E736572745F6272616E6347
:104C0000685F616E645F6C696E6B00006972715FF2
:104C100072656D6F76655F68616E646C65720000C9
:104C20006D616B655F6272616E6368007265736F60
:104C30006C76655F6272616E636800006972715FB5
:104C40007365745F6578636C75736976655F6861B9
:104C50006E646C6572000000746F74616C0000001B
:104C6000433A5C565341524D5C73646B5C706963AC
:104C70006F5C7069636F2D73646B5C7372635C63EC
:104C80006F6D6D6F6E5C7069636F5F73796E635C7F
:104C90006D757465782E63006D74782D3E636F7248
:104CA000652E7370696E5F6C6F636B0075735F73F5
:104CB000696E63655F626F6F74203C3D20494E549E
:104CC00036345F4D41580000433A5C565341524DD3
:104CD0005C73646B5C7069636F5C7069636F2D7388
:104CE000646B5C7372635C636F6D6D6F6E5C706937
:104CF000636F5F626173655C696E636C7564652F79
:104D00007069636F2F74797065732E6800000000FE
:104D10006C6F636B5F69735F6F776E65725F6964F9
:104D20005F76616C6964286D74782D3E6F776E656F
:104D3000722900006D74782D3E656E7465725F6334
:104D40006F756E74000000006D757465785F65782E
:104D5000697400006D757465785F656E7465725F67
:104D6000626C6F636B5F756E74696C0072742D3E5C
:104D7000616C61726D5F6964203D3D206964000073
:104D8000433A5C565341524D5C73646B5C7069638B
:104D90006F5C7069636F2D73646B5C7372635C63CB
:104DA0006F6D6D6F6E5C7069636F5F74696D655C6C
:104DB00074696D652E63000069642026262069648D
:104DC000203C3D20706F6F6C2D3E686561702D3EFC
:104DD0006D61785F6E6F6465730000006964202602
:104DE00026206964203C3D20686561702D3E6D6120
:104DF000785F6E6F64657300433A5C565341524D61
:104E00005C73646B5C7069636F5C7069636F2D7356
:104E1000646B5C7372635C636F6D6D6F6E5C706905
:104E2000636F5F7574696C5C696E636C7564652F24
:104E30007069636F2F7574696C2F70686561702E6F
:104E400068000000706172656E745F696400000044
:104E50006368696C645F696400000000706172657A
:104E60006E745F696420213D206368696C645F69CA
:104E7000640000002170685F636F6E7461696E7317
:104E80005F6E6F646528706F6F6C2D3E6865617032
:104E90002C2072657573655F6964290072656D6F9A
:104EA0007665645F6964203D3D206E6578745F6956
:104EB0006400000063616C6C6261636B0000000061
:104EC000706F6F6C2D3E616C61726D5F696E5F70AB
:104ED000726F6772657373203D3D206D616B655F16
:104EE0007075626C69635F69642869645F6869678B
:104EF000682C206E6578745F6964290069642026D7
:104F000026202170685F636F6E7461696E735F6ED7
:104F10006F646528686561702C2069642900000051
:104F200021686561702D3E667265655F7461696CAC
:104F30005F69640064656661756C745F616C617261
:104F40006D5F706F6F6C5F696E697469616C697AAF
:104F50006564282900000000616C61726D5F6964FE
:104F600020213D20706F6F6C2D3E616C61726D5F12
:104F7000696E5F70726F67726573730072630000B1
:104F8000417474656D7074656420746F20736C6512
:104F9000657020696E73696465206F6620616E209C
:104FA000657863657074696F6E2068616E646C65A6
:104FB000723B2075736520627573795F77616974E0
:104FC00020696620796F75206D757374000000008C
:104FD000726570656174696E675F74696D65725F33
:104FE00063616C6C6261636B00000000616C6172F4
:104FF0006D5F706F6F6C5F63616E63656C5F616C3A
:1050000061726D007570646174655F75735F73695B
:105010006E63655F626F6F7400000000616C6172A7
:105020006D5F706F6F6C5F616C61726D5F63616CFF
:105030006C6261636B0000006765745F656E74721B
:1050400079000000616C61726D5F706F6F6C5F67FB
:1050500065745F64656661756C7400006765745F94
:10506000656E7472795F69645F68696768000000E3
:1050700070685F667265655F6E6F64650000000052
:1050800070685F6164645F6368696C645F6E6F64BD
:105090006500000070685F696E736572745F6E6FA3
:1050A0006465000070685F6765745F6E6F646500BB
:1050B0006164645F616C61726D5F756E6465725F7F
:1050C0006C6F636B00000000486172647761726509
:1050D00020616C61726D20256420616C7265616471
:1050E0007920636C61696D656400000074696D65A9
:1050F000725F68772D3E696E7473202620317520AB
:105100003C3C20616C61726D5F6E756D000000004B
:10511000433A5C565341524D5C73646B5C706963F7
:105120006F5C7069636F2D73646B5C7372635C7228
:1051300070325F636F6D6D6F6E5C68617264776112
:1051400072655F74696D65725C74696D65722E63FA
:105150000000000068617264776172655F616C6174
:10516000726D5F7365745F746172676574000000CF
:10517000726F6F745F696400433A5C565341524DDD
:105180005C73646B5C7069636F5C7069636F2D73D3
:10519000646B5C7372635C636F6D6D6F6E5C706982
:1051A000636F5F7574696C5C70686561702E630015
:1051B0002170685F6765745F6E6F646528686561FC
:1051C000702C20726F6F745F6964292D3E73696261
:1051D0006C696E67000000002170685F6765745F2E
:1051E0006E6F646528686561702C20726F6F745FE4
:1051F0006964292D3E706172656E74006E65775F1B
:105200007375625F7472656520213D206865617009
:105210002D3E726F6F745F696400000070685F728A
:10522000656D6F76655F616E645F667265655F6E02
:105230006F64650070685F72656D6F76655F616E43
:10524000795F68656164000070685F6164645F63D2
:1052500068696C645F6E6F646500000070685F670A
:1052600065745F6E6F6465007364615F74785F6816
:105270006F6C645F636F756E74203C3D206C636E71
:1052800074202D2032000000433A5C565341524DA9
:105290005C73646B5C7069636F5C7069636F2D73C2
:1052A000646B5C7372635C7270325F636F6D6D6FA1
:1052B0006E5C68617264776172655F6932635C69B4
:1052C00032632E63000000006932635F7365745FB0
:1052D0006261756472617465000000007372635FDF
:1052E00066726571203E3D206672657100000000A7
:1052F000433A5C565341524D5C73646B5C70696316
:105300006F5C7069636F2D73646B5C7372635C7246
:1053100070325F636F6D6D6F6E5C68617264776130
:1053200072655F636C6F636B735C636C6F636B73ED
:105330002E630000636C6F636B5F636F6E666967FB
:105340007572650076636F5F66726571203E3D2001
:10535000285049434F5F504C4C5F56434F5F4D4977
:105360004E5F465245515F4D485A202A204D485ABB
:10537000292026262076636F5F66726571203C3D8A
:1053800020285049434F5F504C4C5F56434F5F4D70
:1053900041585F465245515F4D485A202A204D489A
:1053A0005A290000433A5C565341524D5C73646B7A
:1053B0005C7069636F5C7069636F2D73646B5C73A1
:1053C00072635C7270325F636F6D6D6F6E5C68618B
:1053D0007264776172655F706C6C5C706C6C2E636C
:1053E000000000006662646976203E3D2031362070
:1053F0002626206662646976203C3D2033323000E8
:1054000028706F73745F64697631203E3D203120CF
:10541000262620706F73745F64697631203C3D20CE
:1054200037292026262028706F73745F64697632CE
:10543000203E3D203120262620706F73745F646902
:105440007632203C3D203729000000007265665FFF
:105450006D687A203C3D202876636F5F66726571C7
:10546000202F203136290000706C6C5F696E6974E2
:10547000000000002C2066756E6374696F6E3A2020
:1054800000000000617373657274696F6E202225DD
:105490007322206661696C65643A2066696C6520D8
:1054A000222573222C206C696E65202564257325C6
:1054B000730A000031203D3D202875696E747074B8
:1054C000725F74296C2D3E7370696E5F6C6F636BD5
:1054D00000000000433A5C565341524D5C73646BCC
:1054E0005C7069636F5C7069636F2D73646B5C7370
:1054F00072635C7270325F636F6D6D6F6E5C70694A
:10550000636F5F72756E74696D655C72756E7469D8
:105510006D652E63000000000A2A2A2A2050414EA1
:105520004943202A2A2A0A000A00000072756E7474
:10553000696D655F696E697400000000666E692BB5
:1055400000000000666E69006E616E00666E692D77
:1055500000000000BE2F00106E2F00106E2F0010F4
:10556000C82F00106E2F00106E2F00106E2F00102D
:105570006E2F00106E2F00106E2F00106E2F001077
:10558000B42F00106E2F0010AA2F00106E2F0010E5
:105590006E2F0010A02F0010603000108630001019
:1055A000A43000108630001040300010863000100B
:1055B00086300010863000108630001086300010D3
:1055C00086300010863000107C30001086300010CD
:1055D00086300010863000108630001086300010B3
:1055E000B030001018350010E0300010E03000102E
:1055F000E0300010E0300010E0300010E03000102B
:10560000E0300010E0300010E0300010E03000101A
:10561000E0300010E0300010E0300010E03000100A
:10562000E0300010E0300010E0300010E0300010FA
:10563000E0300010E0300010E0300010E0300010EA
:10564000E0300010E0300010E0300010E0300010DA
:10565000E0300010E0300010E0300010E0300010CA
:10566000E0300010423300100233001042330010CB
:10567000E0300010E0300010E0300010E0300010AA
:10568000E0300010E0300010E0300010E03000109A
:10569000E0300010E0300010E0300010E03000108A
:1056A000E0300010E0300010E0300010E03000107A
:1056B000F4300010E0300010E0300010E030001056
:1056C000E0300010E0300010E0300010E03000105A
:1056D000E0300010E0300010F43000109233001081
:1056E000F430001042330010023300104233001037
:1056F000000000000000F03F000000000000244017
:1057000000000000000059400000000000408F40F1
:10571000000000000088C34000000000006AF8405C
:105720000000000080842E4100000000D012634180
:105730000000000084D797410000000065CDCD41F6
:105740002A282875696E74385F74202A2928282829
:10575000766F6964202A29726F6D5F646174615F7E
:105760006C6F6F6B757028726F6D5F7461626C65C2
:105770005F636F6465282753272C20274627292934
:10578000292D322929202A2034203E3D2053465FEE
:105790005441424C455F56325F53495A4500000020
:1057A000433A5C565341524D5C73646B5C70696361
:1057B0006F5C7069636F2D73646B5C7372635C7292
:1057C00070325F636F6D6D6F6E5C7069636F5F6485
:1057D0006F75626C655C646F75626C655F696E693C
:1057E000745F726F6D2E63005F5F61656162695FF8
:1057F000646F75626C655F696E6974002A2828752C
:10580000696E74385F74202A2928726F6D5F746125
:10581000626C652D322929202A2034203E3D2053F8
:10582000465F5441424C455F56325F53495A4500EA
:10583000433A5C565341524D5C73646B5C706963D0
:105840006F5C7069636F2D73646B5C7372635C7201
:1058500070325F636F6D6D6F6E5C7069636F5F66F2
:105860006C6F61745C666C6F61745F696E69745FA4
:10587000726F6D2E630000005F5F61656162695F3A
:10588000666C6F61745F696E69740000446562756F
:1058900067000000626F6F74325F773235713038A5
:1058A00030000000312E352E300000007069636F2B
:1058B00000000000737263004D61792031302032A6
:1058C0003032330006005250BBFF3CB6AC580010DB
:1058D00006005250E182887F945800100600525012
:1058E000D3F075428C5800107570646174655F75F3
:1058F000735F73696E63655F626F6F7400000000B1
:105900000D0A00005541525420737464696E000002
:1059100055415254207374646F757400554152544C
:1059200020737464696E202F207374646F75740023
:105930000600525053B4F4A11C59001008005250F4
:0459400092000000D1
:10594400C0490010AC020010A00200109402001024
:10595400C458001088020010D0580010DC58001001
:08596400305900103C590010FD
:10596C0003000068EFF3108C72B60268002AFCD0BA
:10597C00BFF35F8F04229A56002A0BDB002910D04C
:10598C000A6000201B68BFF35F8F00221A608CF343
:10599C0010887047D0221206127852B21A71012068
:1059AC00F0E70020EEE70000F8B5CE46474680B59C
:1059BC000400170098460368002B20D0D0231B0648
:1059CC001B785BB299462668EFF3108C72B635687B
:1059DC00002DFCD0BFF35F8F04256557002D14DB21
:1059EC002368BFF35F8F00221A608CF31088380095
:1059FC00414600F061F80028E5D000200FE00A4B8A
:105A0C000A4A0B48852100F05FF84B462371236846
:105A1C00BFF35F8F00221A608CF310880120C0BC8A
:105A2C00B946B046F8BDC046984C0010544D001015
:105A3C00604C001070B582B0060015001C0001A966
:105A4C00FFF78EFF002807D1019B5BB2D022120614
:105A5C00127852B2934201D102B070BD2A002300D9
:105A6C003000FFF7A1FFF7E710B50268EFF31081E4
:105A7C0072B61368002BFCD0BFF35F8F0423C356A0
:105A8C00002B0ADBFF2303710368BFF35F8F002237
:105A9C001A6081F3108840BF10BD034B034A0448C1
:105AAC00B42100F011F8C046104D0010484D001004
:105ABC00604C00107047C04601B40248844601BCDB
:105ACC00604700BF6D15001001B40248844601BC4C
