:020000041000EA
:1000000000B5324B212058609868022188439860DF
:10001000D860186158612E4B002199600221596106
:100020000121F02299502B49196001219960352056
:1000300000F044F80222904214D00621196600F024
:1000400034F8196E01211966002018661A6600F04E
:100050002CF8196E196E196E052000F02FF8012189
:100060000842F9D1002199601B49196000215960AB
:100070001A491B48016001219960EB211966A021F2
:10008000196600F012F800219960164914480160C1
:100090000121996001BC002800D000471248134993
:1000A000086003C880F30888084703B5996A0420EC
:1000B0000142FBD001200142F8D103BD02B5186610
:1000C0001866FFF7F2FF186E186E02BD00000240BE
:1000D000000000180000070000035F00212200005C
:1000E000F4000018222000A00001001008ED00E03C
:1000F00000000000000000000000000074B24E7A12
:1001000000200420F7010010C3010010C5010010F9
:10011000C1010010C1010010C1010010C101001097
:10012000C1010010C1010010C1010010C701001081
:10013000C1010010C1010010C9010010CB01001065
:10014000CD010010CD010010CD010010CD01001037
:10015000CD010010CD010010CD010010CD01001027
:10016000CD010010CD010010CD010010CD01001017
:10017000CD010010CD010010CD010010CD01001007
:10018000CD010010CD010010CD010010CD010010F7
:10019000CD010010CD010010CD010010CD010010E7
:1001A000CD010010CD010010CD010010CD010010D7
:1001B000CD010010CD010010CD010010CD010010C7
:1001C00000BE00BE00BE00BE00BE00BEEFF3058054
:1001D000103800BEF2EB8871CC690010F469001091
:1001E0003402001090A31AE700201F49086006C8D7
:1001F00081F3088810471D48006800282FD10DA4FE
:100200000ECC002902D000F012F8F9E71849194A7B
:10021000002000E001C19142FCD1174988471749ED
:1002200088471749884700BEFDE701C901C29A42C5
:10023000FBD37047F4690010C000002014030020B5
:10024000486C00100000042000000420486C0010DE
:10025000001004200010042000000000704709482E
:1002600004F0B6F80047000008ED00E0000000D000
:1002700018030020A80700202D310010050C0010E5
:10028000E93000105756000006005250ABB36053DF
:100290002C69001006005250861C03023C690010B5
:1002A000060052505422A29D406900100500525091
:1002B000DE65F468486C0010F8B5C046064807498A
:1002C000091A8B10C90FC91810B5491003D0044B77
:1002D000002B00D0984710BD140300201403002009
:1002E00000000000054B10B5002B03D00449054861
:1002F00000E000BFFFF7E2FF10BDC04600000000B5
:100300005805002050590010D0231B065B689B0144
:1003100005D5D0231B06802292049A617047D02312
:100320001B06802292045A61F8E70000034B1B88E9
:10033000002B02D0014A013B13807047A007002028
:1003400070B50400C617072232401218D2100D886B
:100350006B00D21A02200B5E5A43D3175B055B0D6C
:100360009B18DB120F20304000190011401B404346
:10037000C2171205120D121812130424085F5043FD
:10038000C2179204920C121892139B184B629A0097
:10039000D3181A008032D117FF20084080180012AD
:1003A000054A934203DB054A934202DC70BD0448D0
:1003B000FCE70448FAE7C046815EF0FF7F34210085
:1003C00060F0FFFF34210000F0B583B001900D0014
:1003D0004A6AD30F9B185B10414A94466344D9176D
:1003E00003263140C91889104943CC176205520DC4
:1003F0005218D21210202F5E57430E202A5E5A4305
:100400005200D219D7173E40B618B6100C202A5EFB
:100410001204B6180A22AF5EE204D20C521852132C
:100420007A43D417072121408A18D2100820295E68
:100430004B43D90FCB185B10D218D3179B039B0BE0
:100440009B189B148022120294466344EA8853430B
:10045000D9174904490CC918C9133BD080235B0341
:10046000019A981AF3171B051B0D9B191B13C31A2E
:100470001C485843002829DB400003F0FDFF020020
:1004800016216B5ED1084943490B5943CB171B0515
:100490001B0D5B181B1391081424285F4843C117D8
:1004A000C904C90C091849135B181220295E5B188E
:1004B000D9170F200840C018001180180A4B984225
:1004C0000BD90A4B984206D9084804E003F0D4FF40
:1004D0004200D5E7064803B0F0BD0548FBE7C0463B
:1004E0000006FFFF350C00002F750000B0AD0100C5
:1004F0003075000030B54C6A334B9C46644483032E
:100500001E22885E000520254A5F62431B1A9B1A43
:100510008022D20194466344D8174004400CC0188E
:10052000C0132223CB566343DA179205920DD218DB
:1005300092120B7F5C43E3175B055B0D1B19DB120B
:1005400080242402A44663445A43D3179B059B0D81
:100550009B189B1280229203944663441A240A5FDC
:1005600053438022920194466344DA179204920C1A
:10057000D3189B135843C3175B045B0C1B18DB1386
:100580005B43DC177F222240D318DB110A7E5343E2
:10059000D9170F220A40D3181B11C31A06D4C82238
:1005A0005205934203DDC8235B0500E00023D81702
:1005B0000005000DC0180013C8235B02984200D943
:1005C000180080B230BDC04600D4FEFFF0B5C6466C
:1005D00000B584B004000E0017001D0001F078FB88
:1005E0008046E117FA2292000023200004F0BAFDB1
:1005F00002000B00029501970096404601F0AAFC0C
:1006000004B080BCB846F0BD10B53B2816D90D4BE0
:10061000984215D81A38C30F181840100004000C5F
:1006200004F006FA084A094B04F091F9084A094B0C
:1006300004F05DF904F038FAC0B200E0002010BD0B
:10064000FF20FCE72A040000E02D90A0F831E03FF5
:10065000EE7C3F355E3A214010B5792807D81B283B
:1006600007D91C38032103F0DFFEC0B200E01F20D1
:1006700010BD0020FCE70000F0B585B000266B46F9
:100680009E81194D194C0127009701232A006521ED
:10069000200002F0D3FA0096012303AA652120006E
:1006A00002F0D8FA124C009701232A00652120009D
:1006B00002F0C4FA009601230D226A44652120004D
:1006C00002F0C8FA6B461B7B0122100018401A4248
:1006D00000D0012003AB5B78DB0702D5022318436F
:1006E000C0B205B0F0BDC046475A0010B4020020A9
:1006F000AC020020F0B5CE46474680B587B004ADC9
:10070000294B9A6804929989A98002AC02929B892C
:10071000A380264F264E0123984600933A00652178
:10072000300002F08BFA00239946009306332A002A
:100730006521300002F08EFA1E4E434600933A00C7
:100740006521300002F07AFA4B460093063322000E
:100750006521300002F07EFAAB781B046A78120241
:100760009B182A789B1814498B606B791B042A7993
:1007700012029B18EA789B18CB60A3781B0462785E
:1007800012029B1822789B180C498B6063791B041A
:10079000227912029B18E2789B18CB6007B0C0BC8C
:1007A000B946B046F0BDC046385A0010465A00104F
:1007B000B4020020AC02002048040020B404002051
:1007C000F0B5CE46474680B585B003AD00272F80F3
:1007D00002AC2780184A1948012399460093904695
:1007E0006521060002F02AFA009702232A006521FB
:1007F000300002F02FFA124E4B460093424665211C
:10080000300002F01BFA009702232200652130001D
:1008100002F020FA6B781B022A789B18094A938011
:1008200063781B0222789B18074A938005B0C0BCEE
:10083000B946B046F0BDC046495A0010B402002087
:10084000AC02002048040020B4040020F0B5CE46DD
:10085000474680B585B003AD00272F8002AC2780C6
:10086000184A1948012399460093904665210600CD
:1008700002F0E4F9009702232A006521300002F01B
:10088000E9F9124E4B46009342466521300002F0D2
:10089000D5F90097022322006521300002F0DAF931
:1008A0006B781B022A789B18094AD38063781B0255
:1008B00022789B18074AD38005B0C0BCB946B04621
:1008C000F0BDC046485A0010B4020020AC0200201F
:1008D00048040020B4040020F0B585B003AC002526
:1008E00025800F2323700D3B6370384F0095220045
:1008F0006521380002F0A2F9354E0095022322004E
:100900006521300002F09AF9102323702C336370B4
:1009100000953A3B22006521380002F08FF90095DE
:10092000022322006521300002F088F91123237090
:10093000FA208000FFF768FE607000950223220015
:100940006521380002F07AF9009502232200652122
:10095000300002F073F9152323706B336370009538
:100960007E3B22006521380002F068F900950223E1
:1009700022006521300002F061F916232370642003
:10098000FFF76AFE6070009502232200652138009F
:1009900002F054F90095022322006521300002F094
:1009A0004DF9172323700023637000950223220062
:1009B0006521380002F042F90095022322006521EA
:1009C000300002F03BF905B0F0BDC046B402002093
:1009D000AC02002030B585B003AC8C235B002380D3
:1009E000084800250095173BFF3B2200652102F0D7
:1009F00025F90548009502232200652102F01EF921
:100A000005B030BDB4020020AC02002030B585B086
:100A100003AC0025258014232370123B6370074824
:100A200000952200652102F009F90548009502238E
:100A30002200652102F002F905B030BDB4020020A9
:100A4000AC020020F0B5C64600B586B080460E0068
:100A500017001D000F226A44F7231370F63B009322
:100A6000762102F0EBF804AC002300930833220057
:100A70007621404602F0EEF82078000363781B01EF
:100A80001843A3781B0918433860E27812032379CE
:100A90001B011A4363791B091A433260A2791202BF
:100AA000E37913432B8006B080BCB846F0BDF0B5A7
:100AB000C64600B58CB006000D0004AC00270497B4
:100AC0001C22002105A804F077FC88236A46D37312
:100AD000873B984600930F226A447621300002F04B
:100AE000ADF80097182322007621300002F0B2F80A
:100AF000A1236A46D373434600930F226A447621AA
:100B0000300002F09BF8009701230AAA76213000FA
:100B100002F0A0F8E1236A46D373434600930F2204
:100B20006A447621300002F089F8009707232922D1
:100B30006A447621300002F08DF863781B02227837
:100B400013432B80E3781B021BB2A27813436B8004
:100B500063791B021BB222791343AB80E3791B023A
:100B6000A2791343EB80637A1B021BB2227A1343F0
:100B70002B81E37A1B021BB2A27A13436B81637B46
:100B80001B021BB2227B1343AB81E37B1B021BB214
:100B9000A27B1343EB81637C1B021BB2227C1343B9
:100BA0002B82E37C1B021BB2A27C13436B82637D0E
:100BB0001B021BB2227D1343AB82E37D1B021BB2DF
:100BC000A27D1343EB82237E2B76A37E1B021BB2F6
:100BD000627E13436B83E37E2B77237F1B01627F4F
:100BE0000F2111405B18EB83A37F1B0112099B1897
:100BF0002B841F22A2562223EA540CB080BCB84694
:100C0000F0BD0000F0B5DE4657464E464546E0B51D
:100C10008DB000250B950A95099508950A2302AA1F
:100C2000944663441D8004AB1D8004F02FFD192001
:100C300000F09EFA0E2000F09BFA092000F098FACE
:100C40000F2000F095FAD0242406802292046262DC
:100C50008023DB01636280218900894661628021F3
:100C6000090288466162A2614A46A261A161A3614C
:100C7000D54BD649FA2000224000FFF7A7FCD44B01
:100C8000D44900220120FFF7A1FC03210A2000F033
:100C90003DFA03210B2000F039FA002201210A203D
:100CA00000F04CFA002201210B2000F047FACA4E56
:100CB000CA4F3100380001F095FF03210C2000F0ED
:100CC00025FA03210D2000F021FA002201210C2039
:100CD00000F034FA002201210D2000F02FFAC04B61
:100CE00031001E00180001F07DFF9621BD4B9A4691
:100CF0000902180002F0B6F90221012000F006FAFC
:100D00000221002000F002FA53461B6BC02212029F
:100D10001340B54A13605346DA6A60235A400E33D3
:100D20001340B24A13605346D96A10230B40136034
:100D300004210E2000F0EAF9AD4BAE499C228B5005
:100D4000AD4A126853401B041B0CAC4A1360AC4BF9
:100D50001A6801239343AB4A1360FA20800001F024
:100D6000EDF94B4663614346636105ACE0232370B4
:100D70002A3B63700095B43B22007621380001F0D5
:100D80005DFF0095022322007621300001F056FF1E
:100D9000642001F0D3F9F5232370B53B637000950F
:100DA0003E3B22007621380001F048FF00950223E7
:100DB00022007621300001F041FFF2232370ED3B49
:100DC00063700095033B22007621380001F036FF66
:100DD0000095022322007621300001F02FFFF4233A
:100DE00023703D3B63700095B53B220076213800AF
:100DF00001F024FF0095022322007621300001F04B
:100E00001DFF81493800FFF752FE80493000FFF78F
:100E10004EFE00262AE07E4C0423E05E03F008FE2E
:100E20007C4A7D4B03F093FD7C4A7D4B03F068FDCB
:100E300003F046FE20607B4C0423E05E03F0F8FDE7
:100E4000744A754B03F083FD744A754B03F058FDEB
:100E500003F036FE2060744B9C466644B3B2664A8B
:100E6000126853401B041B0C644A13606F4B704A9A
:100E70001A8067481C22002104F09EFA69481C224F
:100E8000002104F099FA0A22002105A804F094FA3E
:100E90000A2001F053F9FFF79DFDFFF71DFDFFF755
:100EA000B5FD644801F04AF9FFF7E6FBFFF722FCC5
:100EB000FFF786FCFFF7CAFC0A2302AA94466344A4
:100EC0009B4646480BAA09A9FFF7BCFD04AF44485E
:100ED0003B000AAA08A9FFF7B5FD4B4D0998290068
:100EE000FFF72EFA8146494C08982100FFF728FAAF
:100EF00080460B982900FFF767FA82460A9821007E
:100F0000FFF762FA03905B4618882900FFF7F2FAB0
:100F1000050038882100FFF7EDFA0400484604F088
:100F200067F9454904F045F904F084F902000B0023
:100F3000424804F09FFB404604F05AF93E4904F051
:100F400038F904F077F902000B003D4804F092FBF9
:100F5000504604F04DF93B4904F02BF904F06AF9CE
:100F600002000B00384804F085FB039804F040F9B8
:100F7000344904F01EF904F05DF902000B00334817
:100F800004F078FB280004F033F9EA21890504F025
:100F900026F904F04FF902000B002D4804F06AFB1B
:100FA000200004F025F9EA21890504F018F904F07D
:100FB00041F902000B00274804F05CFB002E00D032
:100FC00029E7254E27E7C046180400200903001032
:100FD000300400202D030010A0860100B402002080
:100FE000AC02002000400340305003402C5003402E
:100FF000FFFF0000000005409800054098100540E4
:101000008C0005408C100540640400208C040020F6
:1010100048040020174850FC1873A73F9A999999E3
:1010200099DF9540B4040020F0D8FFFFA00700200E
:1010300088130000260200000000C842505900102A
:101040007459001000007A4498590010BC590010DF
:10105000E0590010045A001070110100034B1B6886
:1010600002201840431E9841C0B2704700C006409D
:10107000EFF3108072B6034B1B68002BFBD0BFF35D
:101080005F8F70472C0100D0BFF35F8F024B0022AF
:101090001A6080F3108870472C0100D0F8B5060064
:1010A0000C001500FFF7E4FFE308F718F15C0722D6
:1010B0002240012393400B4205D1DBB20B433B702E
:1010C000FFF7E2FFF8BD2100280002F0ABF80000B6
:1010D000002307E0054A9A189200BFF35F8F0021B2
:1010E000116001331F2BF5D97047C0464000003412
:1010F000054A1078431CDBB21370172B02D913007A
:1011000010221A707047C0463802002010B58300C4
:10111000084A944663441A6840246240803414406C
:101120008022520113431C60C000034B9C46604464
:10113000416010BD04C001400040014080000B4BE5
:101140009C46604400290DD00823002A0CD00422BC
:101150001343026853400C221A4080235B0103436F
:101160001A6070470023F0E70022F1E704C0014055
:1011700010B501238340D0221206936293610521AA
:10118000FFF7C4FF10BD0000074B9B6810308000C4
:101190001950BFF35F8FBFF35F8F044B00211960BD
:1011A00082F310887047C04600ED00E0240100D0B3
:1011B00010B5091A0B1F0A4A94466144094A914224
:1011C00008D8DA0706D45B105B055B0D06481843A8
:1011D00080B210BD054B064A0648A32101F088FFE6
:1011E000FC070000FE0F000000E0FFFF585A00104F
:1011F000AC5C0010885A001010B5091A04394A086E
:10120000090B08D14905490D064B0B430380064BDA
:101210001343438010BD054B054A0648AB2101F03E
:1012200067FFC04600F0FFFF00F8FFFFC85A00103C
:10123000805C0010885A001001238340034A106824
:101240001840431E9841C0B27047C04600E100E01C
:10125000002904D0034B1860034B18607047034B00
:101260001860FBE780E200E000E100E080E100E0E0
:1012700010B5012383401800FFF7EAFF10BD0000FE
:10128000024B9B6810308000C058704700ED00E0B2
:1012900070B504000D00EFF3108672B60C4B1B689E
:1012A000002BFBD0BFF35F8F2000FFF7E9FF094B56
:1012B000984201D0A84205D1320029002000FFF752
:1012C00063FF70BD044B054A0548862101F010FFFD
:1012D000240100D0CD010010D85A0010C85C0010C5
:1012E000885A0010F0B5CE46474680B583B0060058
:1012F0000D00EFF3108872B6554B1B68002BFBD026
:10130000BFF35F8F534B9A6834001034A300D75853
:10131000514B9F4207D0AF4200D196E001974F4B0F
:10132000FB1A2F2B09D9424639003000FFF72CFF5A
:1013300003B0C0BCB946B046F0BD3000FFF77CFF3B
:10134000814600213000FFF793FFBFF35F8FEFF37B
:101350000581002901D08C4211D10123019C9C43BD
:101360000020A368AB4212D00622A256002A0DDB51
:1013700053009B189B00394A2000D418F1E7384BE2
:10138000384A36213848FF3101F0B2FE2000AB4226
:1013900054D106256557002D36DB304B6A005219B3
:1013A00092009B189A68A260DA79E2719B795BB22D
:1013B000A371002B0FDA2D48A080284B6A00521928
:1013C00092009B182A4A117899711570494630008D
:1013D000FFF74EFFA7E7201D6B005B199B001F4A1C
:1013E0009B18191D9B88DA0A1C2A07D15B055B151F
:1013F00002335B00C918FFF7DBFEDDE71D4B1E4A19
:101400001948B12101F074FE002912D100280ED034
:10141000FF238371194B838015490B78A3710F4A01
:10142000174BA41A644163431B0D0B70CEE70A4FA0
:10143000F2E71449201DFFF7DFFEC7E7124B094A08
:101440006A210948FF3101F053FE034F6BE7C046A4
:10145000240100D000ED00E0CD0100103C0200208E
:10146000EC5B0010985C0010885A001001BD000071
:10147000A3070020D45B0010B85C001001BDFFFF83
:10148000AAAA000076020020205C001070B501229C
:1014900002432E4BD31A2F2B28D8EFF30583002BB2
:1014A0002BD0EFF3108C72B6294909680029FBD0C4
:1014B000BFF35F8F254C274905002D1B6D41694304
:1014C000090D4CB2244989689B00C95891421BD030
:1014D0000021032932D81D4B4A00521892009B1854
:1014E0009B795BB2A3421FD00131F2E71B4B1C4A30
:1014F000C7211C48490001F0FBFD1B4B184A9221F3
:101500001848FF3101F0F4FD134A92681749D15091
:10151000174B1A7882711C70BFF35F8F0C4B00223F
:101520001A608CF3108870BD084B4A005518AD0046
:101530005D19FF26AE710F4AAA80E9E70E4B084AF3
:10154000D1210848490001F0D3FDC0463C020020EB
:10155000240100D0AAAA000000ED00E0285C0010E1
:10156000645C0010885A0010505C0010CD0100101F
:10157000A307002001BDFFFF5C5C00100022044BAC
:1015800002E0044902C30132072AFAD97047C04673
:1015900000E400E080808080024B9C46614489002A
:1015A000016070474000003410B50400FFF7A0FD53
:1015B00001002000FFF7F0FFFF232371BFF35F8FCF
:1015C00010BD10B50400FFF793FD01002000FFF7E8
:1015D000E3FFFF23237100236371BFF35F8F10BD0F
:1015E00010B50C00CB68834207D10B6908009847FF
:1015F000002809D02068616810BD064B064AA82162
:101600000648490001F074FD0023E360002000213A
:10161000F2E7C046F85D00105C6000100C5E001040
:1016200070B505000C00080000F016FF0949200005
:1016300000F056FEFFF75CFD074B9C4660448000BF
:1016400068602C75D0231B061B786B75034BA400B8
:10165000E55070BD551900104000003470050020A1
:101660000A4B1A68EFF3108172B61368002BFCD096
:10167000BFF35F8F054B1B68BFF35F8F00221A60BB
:1016800081F3108840BF00200021704784070020AC
:1016900010B5002920D003681B7B99421CD88368B1
:1016A000154CA446614409015B181C685968002A5E
:1016B00018D003681B7B9A4214D883680E4884466E
:1016C000624412019B181A685B6801208B4201D8A2
:1016D0000ED00020C0B210BD084B094A09483C2179
:1016E00001F006FD054B064A06483C2101F000FDCD
:1016F000A242EFD8EDE7C046FFFFFF0F445E0010A7
:10170000C46000100C5E001010B500291DD0037BD2
:1017100099421AD804684B005B18033BE41800296F
:1017200019D0002A1DD0914221D0002A25D0037B58
:101730009A4222D8006853009B18033BC318997043
:10174000217800291FD1227010BD104B104A11487A
:10175000682101F0CDFC104B104A0E486F3101F0AA
:10176000C7FC0F4B0D4A0B48702101F0C1FC0D4B1B
:101770000A4A0848712101F0BBFC044B044A0548A1
:10178000682101F0B5FC59702270DDE7685E001039
:1017900030610010845E0010D05E00100C610010FB
:1017A000DC5E0010E85E001070B506000D0014004D
:1017B000002914D0002A14D0436880689847002874
:1017C00006D0220029003000FFF79EFF280007E026
:1017D0002A0021003000FFF797FF200000E01000F2
:1017E00070BD0800FCE70000F0B583B00500009272
:1017F00001930AAB1C780BAB1F78002C26D0036832
:101800005A7B944207D10123002B19D1002C3AD1E5
:10181000200003B0F0BD002C0CD01A7B944209D8F4
:101820001A6863001B19033BD3189B78002BEBD07D
:101830000123E9E73C4B3D4A3D48682101F058FC53
:101840003C4B3D4A3D48672101F052FC03689C7BBC
:10185000002CDBD011D01A7B94420ED81A6861009C
:1018600009190339521851789973002900D1D97395
:101870000023937053701370C8E72B4B2B4A2C48EE
:10188000682101F035FC002C37D02B681B7B9C4273
:1018900033D8AB682A4AA21812019B18009A1A6022
:1018A000019A5A60089A9A60099ADA602E68002CA8
:1018B00029D02ED0337B9C422BD83368620012197A
:1018C000033A9B1800229A705A701A70717B22009A
:1018D0003000FFF769FF7073844299D1287D009A28
:1018E000019B00F045FD061E01D0002F17D00C9B78
:1018F000002B00D18CE71E708AE7124B124A0F486A
:101900003C2101F0F5FB114B114A0948A52101F0DA
:10191000EFFB054B054A0648682101F0E9FB286802
:10192000210000F055FFE2E7685E00103061001012
:10193000845E0010005F00103C6100100C5E00101F
:10194000FFFFFF0F445E0010C4600010085E00102F
:1019500020610010F0B5DE4657464E464546E0B5DC
:101960008BB0099000230893B54B8200D55854E002
:10197000B44BB54AB5483F2101F0BAFBB44BB54A68
:10198000B5483C2101F0B4FB002F01D1002E6BD1F2
:10199000002100F013FFA0421CD143461A685B6887
:1019A0000692079343469B689A464346DB689B46EC
:1019B0005346002B14D0002C18D02B681B7B9C4264
:1019C00014D8EA68631ED35C08931B02184328618D
:1019D000002015E0A14BA24A9F488E2101F088FB10
:1019E000A04B9F4A9C48922101F082FB984B9E4A53
:1019F0009948412101F07CFB00239B469A46002038
:101A00006B68BFF35F8F00221A6089F3108853461A
:101A1000002B33D1002800D10BE100F041FC020083
:101A20000B1EA5DB00200021069007916868EFF3EC
:101A3000108972B601680029FCD0BFF35F8F286857
:101A4000447B002CD8D099D0017B8C4296D8AE68CC
:101A5000864961180901B046884441460E684F68BE
:101A6000B61A9F41002F8FDD43461A685B680998BC
:101A700000F07EFC00239B469A46C1E7089B1B02B0
:101A80002343984659461800D04706000F006A685D
:101A9000EFF3108972B6136859424B41D9B2002B4B
:101AA000F9D1BFF35F8F002F1EDB002F46DD2B69BE
:101AB000002B47D043456DD100F0F2FB02000B1E16
:101AC0006EDB92197B41002B70DB002B72DB002157
:101AD00004910131039102945946019151460091BC
:101AE0002800FFF781FE4CE02B69002BDDD0434539
:101AF00014D1069A079B921BBB41002B14DB002BD1
:101B000016DB0021049101310391029459460191A1
:101B1000514600912800FFF767FE32E0544B504ACF
:101B20004D48A12101F0E4FA01225242514BE6E76F
:101B3000444B454A45483F2101F0DAFA002F01D1D4
:101B4000002EB4D12B68002C4FD05A7B944237D151
:101B50000121002949D1DA7B002A4CD19A7B002A45
:101B600003D1DA7B002A58D19C73DC73002C5AD045
:101B70002B681B7B9C4256D8EA68013C135D0133FD
:101B8000135500232B616A68BFF35F8F136089F3DD
:101B9000108842E7364B324A2F48A42101F0A8FAB8
:101BA000284B294A29483F2101F0A2FA012252423A
:101BB000304B8AE7234B244A24483F2101F098FA0E
:101BC000002C0CD01A7B944209D8186862001219B4
:101BD000033A82189278002ABBD00121B9E7264B3C
:101BE000264A2748682101F083FA264B264A2448D2
:101BF000F62101F07DFA002A09D0197B8A4206D825
:101C0000186851008A18033A82185470A6E71A4BD4
:101C10001A4A1B48682101F06BFA1C4B1A4A1848F3
:101C2000FB2101F065FA0A4B0F4A0B48412101F0F4
:101C30005FFA0BB0F0BCBB46B246A946A046F0BD69
:101C400070050020385D001090600010545D001099
:101C5000445E0010C46000100C5E0010285F00108D
:101C6000A8600010405F0010E8600010FFFFFF0F49
:101C70004C5F0010FFFFFF7F685E001030610010B6
:101C8000845E0010885F0010FC600010AC5F0010E4
:101C900010B50C4B5B68002B04D00B480A21FFF7F2
:101CA0007BFC10BD074C094A20682300102100F07E
:101CB0009BFC032000F0E8FA03212000FFF7B0FCB2
:101CC000EBE7C04684020020840700209116001034
:101CD00010B5064B5B68002B01D0044810BD044BC7
:101CE000044A05485E2101F003FAC0468402002040
:101CF000C05F0010D06000100C5E0010F0B5DE4632
:101D000057464E464546E0B58BB0804616001F004C
:101D1000149B9A46159B994616AB1B789B461F232E
:101D200002AA9446634400221A702DE0002809D0CC
:101D300042461268127B904204D84246D168421E45
:101D40008A5C43E0414B424A4248412101F0D0F9CC
:101D500007984EE0361BAF41002F07DB002F13DA48
:101D60003D4B3E4A3E483F2101F0C2F901267642F2
:101D70003C4FF3E7384B394A39483F2101F0B8F975
:101D8000002D51DB26002F0043465A68EFF31084E4
:101D900072B6136859424B41D9B20791002BF8D162
:101DA000BFF35F8F1F3302AA94466344049300235A
:101DB000039302934B4601935346009332003B003A
:101DC0004046FFF711FD031EB0D1020041464968AD
:101DD000BFF35F8F00250D6084F31088002B29D09E
:101DE0001F2302A98C4663441B78002BB0D112023A
:101DF0001043002B20D05B46002B1DD04946D04716
:101E000004000D0003000B431DD00029A2DB00F0ED
:101E100047FA02000B1EADDBA4185D41002DAFDABE
:101E2000012464420F4DABE70B4B0C4A0C483F2199
:101E300001F05EF9012040420BB0F0BCBB46B24657
:101E4000A946A046F0BD0798F6E7C046445E0010DC
:101E5000E86000100C5E0010385D0010906000100B
:101E6000545D0010FFFFFF7FF8B504004268EFF3F8
:101E7000108572B6136858424341D8B2002BF9D18D
:101E8000BFF35F8FCBB22268567BB3421BD10120D8
:101E9000002847D0206988422AD0090AC9B2002BFD
:101EA0002DD02068007B834229D8E668581E305C1C
:101EB00088422AD000206368BFF35F8F00221A6037
:101EC00085F31088F8BD002B0CD0167BB34209D8DF
:101ED00017685E00F618033EBE19B678002ED7D0FC
:101EE0000120D5E7124B134A1348682101F000F98D
:101EF000124B134A95211348490001F0F9F8124B8F
:101F0000124A1048412101F0F3F81900100000F0C6
:101F10005FFC0028CFD10E4B094A32210948FF311E
:101F200001F0E6F823698B42C5D100232361C2E7A3
:101F3000685E001030610010845E0010E45F0010E5
:101F4000786000100C5E0010445E0010E860001025
:101F500008600010F0B585B007000C9E1100194311
:101F600001D101220023B7600A99316132607360A8
:101F70000B997161D81701004240140043401D00C5
:101F8000241A8D4100F08CF902000B1E12DB12198D
:101F90006B41002B14DB002B16DB01210291019613
:101FA0000C4900913800FFF7A9FEF060C043C00F54
:101FB00005B0F0BD084B094A09483F2101F098F8E7
:101FC00001225242074BE6E7034B044A04483F21F3
:101FD00001F08EF8E1150010385D001090600010DF
:101FE000545D0010FFFFFF7FF0B587B006000F00C3
:101FF000EFF30583002B1FD106246442E517A419D3
:102000007D418D4202D803D1844201D900240025AC
:10201000002D14DB0494059500F042F902000B1E1C
:1020200013DBA41A9D41002D17DC14D030003900B9
:1020300000F042F907B0F0BD234801F0F3F8234B5C
:10204000234A24483F2101F053F8204B204A2148DD
:102050003F2101F04DF8002CE8D0FFF739FE0023B6
:10206000029301931C4B0093049A059BFFF746FED5
:10207000002818DADAE7002300E00023002BD5D18E
:10208000164B1A68EFF3108172B61368002BFCD060
:10209000BFF35F8F114B1B68BFF35F8F00221A6085
:1020A00081F3108820BF0499059A0D4B5B6A9A4210
:1020B000E3D80B48806A884203D29A42DBD00123DE
:1020C000DCE70123DAE7C0460C600010385D001041
:1020D00090600010545D001061160010840700200D
:1020E0000040054070B504000D0000F0D9F8020072
:1020F0000B1E0ADB200029008018594100290ADB49
:1021000000290CDBFFF770FF70BD084B084A094837
:102110003F2100F0EDFF012040420749F0E7034B6B
:10212000034A04483F2100F0E3FFC046385D001039
:1021300090600010545D0010FFFFFF7F10B5FA2281
:1021400092000023002103F00DF8FFF7CBFF10BD34
:1021500070B584B005000C00EFF30583002B1ED191
:10216000FFF7B6FD002302930193224B00932A0050
:102170002300FFF7C3FD061E23DD20BFFFF7A8FDE8
:102180003100FFF771FE1C4B5B6A9C422DD81A4A46
:10219000926AAA422CD29C4225D0012026E0164BFE
:1021A0005B6A994209D8144A926A824207D29942DC
:1021B00001D001201AE0002018E0002016E00120E4
:1021C00014E00D4B5B6A9C4209D80B4A926AAA4202
:1021D00007D29C4201D0012008E0002006E0002048
:1021E00004E0012002E0002000E0002004B070BD07
:1021F0000120FBE7611600100040054070B5EFF3C9
:1022000005801038EFF3108C72B6194B1B68002B49
:10221000FBD0BFF35F8F01221300834015494B634E
:1022200015490B60154909780C00C440224213D0AF
:10223000104A546A124A8500AA58944205D3114A9A
:10224000AA580E4C9943217007E00A4A031D9B00CF
:1022500099589950002200E00022BFF35F8F044B91
:10226000002119608CF31088002A00D0904770BDBF
:10227000280100D0004005403C700540A407002024
:1022800088070020D004002010B50100024A034B4B
:102290001800FEF703FF10BD54610010A2070020D4
:1022A000044B5B6A034A906A1900536A9942F9D158
:1022B0007047C04600400540084B5B6A01E0074B91
:1022C0005B6A8B42FBD301E0044B5B6A8B4203D118
:1022D000024B9B6A8342F7D37047C04600400540DB
:1022E00070B504000E00EFF3108572B61B4B1B682F
:1022F000002BFBD0BFF35F8F002E1CD02000FEF719
:10230000BFFF174B83420BD019002000FEF7C0FF20
:1023100001212000FEF7ACFF0123A340114A136006
:10232000114BA400E650BFF35F8F0C4B00221A60E4
:1023300085F3108870BD0C4BA2000021D150012202
:10234000A2400A490B7893430B7005492000FEF721
:10235000C9FF00212000FEF78BFFE4E7280100D031
:10236000FD21001038600540D0040020A4070020A3
:10237000F0B5DE4600B584B00400150001921E00E1
:102380000293FFF78DFF03958E4202D84ED185420E
:102390004CD9EFF3108B72B6274B1B68002BFBD088
:1023A000BFF35F8F254A17780125A540EBB23B4369
:1023B0001370234B5D63221D92000199D150214A75
:1023C000A100029888501B6A2B4212D11C4B1B6C37
:1023D0002B4208D00020BFF35F8F174B00221A60FA
:1023E0008BF3108823E0184B184A1948C52100F0D8
:1023F0007FFEFFF755FF8E4214D802D1039B834224
:1024000010D80E4B1B78BB420ED00D4B1D625D6386
:102410001F222240012393400E4A1360074B1F7076
:102420000120D8E70020D6E70120D4E7012004B03E
:1024300080BCBB46F0BDC046280100D0A4070020E8
:10244000004005408807002078610010E06100101E
:102450009C61001080E200E0EFF3108C72B60B4B31
:102460001B68002BFBD0BFF35F8F01238340084A1A
:10247000136208490A789A430A70BFF35F8F034BCF
:1024800000221A608CF310887047C046280100D0E3
:1024900000400540A407002010B500291DD0037B93
:1024A00099421AD804684B005B18033BE4180029D2
:1024B00019D0002A1DD0914221D0002A25D0037BBB
:1024C0009A4222D8006853009B18033BC3189970A6
:1024D000217800291FD1227010BD104B104A1148DD
:1024E000682100F005FE104B104A0E486F3100F0D5
:1024F000FFFD0F4B0D4A0B48702100F0F9FD0D4B0D
:102500000A4A0848712100F0F3FD044B044A0548CB
:10251000682100F0EDFD59702270DDE7685E001063
:10252000E8620010845E0010D05E0010D4620010DB
:10253000DC5E0010E85E001070B506000D001400AF
:10254000002914D0002A14D04368806898470028D6
:1025500006D0220029003000FFF79EFF280007E088
:102560002A0021003000FFF797FF200000E0100054
:1025700070BD0800FCE7000010B500234373013371
:102580008373037BC3730123027B9A4213D9002B0D
:102590000BD0027B934208D801685A00D218033A44
:1025A0008A180133DBB25370EEE70C4B0C4A0D482E
:1025B000682100F09DFD002A09D0924207D80168E9
:1025C00053009B18033BCB1800225A7010BD034BDD
:1025D000034A0448682100F08BFDC046685E001085
:1025E000E8620010845E001010B5017342608360E1
:1025F000FFF7C2FF10BD000070B50400081E00D137
:1026000070BD002931D0237B99422ED822684B001F
:102610005B18033BD3185A78002AF1D02BD0237BC8
:102620009A4228D8216853009B18033BCB185D7849
:1026300000215970002824D0237B984221D821689A
:1026400043001B18033BCB180021597001002000E8
:10265000FFF772FF060029002000FFF7CDFF020000
:1026600031002000FFF768FFCAE7094B094A0A4812
:10267000682100F03DFD064B064A0748682100F03E
:1026800037FD034B034A0448682100F031FDC04682
:10269000685E0010E8620010845E001070B50500EE
:1026A0000C00160000292ED033D0037B994230D87D
:1026B00003684900091903395B185A78002A2ED19A
:1026C0009A78002A31D11978FFF796FF0300002E7F
:1026D0000AD0EA7B002A2ED1AA7B002A03D1EA7B0A
:1026E000002A3AD1AC73EC73002B3CD1002C4DD0B6
:1026F0002B7B9C424AD82A6863001B19033BD318E2
:1027000000225A7070BD244B244A2548382100F01D
:10271000EFFC244B244A2548682100F0E9FC244BB7
:102720001E4A1F483A2100F0E3FC224B1B4A1C487A
:102730003B2100F0DDFC002A09D0297B8A4206D823
:102740002E6851008A18033AB2185470C4E7154B2A
:10275000154A1648682100F0CBFC174B0F4A104869
:10276000422100F0C5FC002B0AD02A7B934207D8F7
:102770002A6843001B18033BD31800229A70B5E760
:10278000084B094A0948682100F0B2FC054B064A8B
:102790000648682100F0ACFCFC610010C06200102B
:1027A00004620010685E0010E8620010845E001091
:1027B0003C62001064620010AC5F001070B5040051
:1027C0000A00457B2900FFF769FF6073280070BD90
:1027D00070B50400002966D0437B8B420ED00029DF
:1027E00011D0037B99420ED805684B005B18033B60
:1027F000ED18AB78002B0CD1002055E00121FFF73C
:10280000DDFF012050E0294B294A2A48682100F0C9
:102810006FFC002B1FD0027B93421CD800685A002B
:10282000D318033BC218C35C8B421AD0002B1BD0B9
:10283000227B934218D820685A00D318033BC01853
:1028400043788B4216D0002BF0D11B4B1B4A1C48FF
:102850006B2100F04DFC154B154A1648682100F01D
:1028600047FC6B78137007E0104B114A1148682140
:1028700000F03EFC6B7843700023AB706B7001225C
:102880002000FFF70BFF0200617B814205D0200092
:10289000FFF752FE6073012006E00A4B074A084822
:1028A000712100F025FC002070BDC046685E00105C
:1028B000E8620010845E00105C5C0010A8620010EA
:1028C0000462001088620010F0B5DE4657464E469E
:1028D0004546E0B585B006001C0002930EAB1878A3
:1028E00003900F9D109F33680020D86633685960AD
:1028F00033680121D966A246002398469B460021F1
:1029000000242BE03379002B31D001232FE00398F2
:10291000002801D000202EE001202CE03800A8473C
:1029200001000443E4B2002906D133685B6BDB0687
:1029300002D4002DF2D1F6E7002909D133688022B4
:102940009A589346002A1FD1002C2FD1C1451ED082
:10295000002C33D101239C46E044019AD0452DDA66
:10296000029B013B99464346002BCBD000239B02A0
:10297000C145CCD0002040020343501C0190107888
:10298000326803431361D4E75B6D01240EE0039BBF
:10299000002BDDD10AE03800A84701000443E4B26F
:1029A000002906D133685B6B9B0502D4002DF2D160
:1029B000F6E70029CCD133681B6EC9E7002C09D09B
:1029C000002915D15B46002B16D0DB0718D45B46D7
:1029D0001B0709D5039B3371404605B0F0BCBB46CD
:1029E000B246A946A046F0BD02235B429846F1E7F5
:1029F00001235B429846EDE702235B429846E9E7F4
:102A000002235B429846E5E7F0B5DE4657464E4660
:102A10004546E0B583B0050091469A460CAB1B785D
:102A200001930D9E0E9F03680022DA6603685960C9
:102A300003680132DA66D3460023984600242CE06E
:102A40002979002901D1002033E0012031E00199EA
:102A5000002901D0002130E001212EE03800B047EC
:102A600003000443E4B2002C0DD12A68926F002ABF
:102A700009D12A6880215158546D621E9441E4B2F4
:102A8000002EEBD1EFE7002C1ED12A6812694946CF
:102A90000A7001229446E044E144D84514DA5246D3
:102AA000541E2A68516F1029FBD041460029C7D017
:102AB000002080024445CAD00021490208438021F9
:102AC000490001431161D4E7002C04D0002B0CD045
:102AD00001235B429846019B2B71404603B0F0BC3A
:102AE000BB46B246A946A046F0BD02235B429846CB
:102AF000F1E70000F0B5D6464F464646C0B50500A2
:102B00000C00052000F0B4F90600600880192100CF
:102B100001F0B2FC07004300994681440521484674
:102B200001F0AAFC80463B1A9A46284B9C4224D8C6
:102B300070008019264901F09FFC441C4346023B6B
:102B4000A34221D32B680022DA6629680B6804327D
:102B5000534002321A4080235B010B431A602B68FA
:102B60005246DA612B6842461A624B464F2B11D906
:102B70005021484601F080FC0DE070008019154995
:102B800001F07AFC441CD9E7134B144A14485F2126
:102B900000F0AEFA01202A68A023D0502B681A005A
:102BA0007C32DB6F5C402404240C80235B011343E4
:102BB0001C602B680122DA663900300001F05CFCF1
:102BC000E0BCBA46B146A846F0BDC0463F420F0041
:102BD0008096980040787D01F462001054630010E4
:102BE0001463001010B5114B98421DD01022104BE9
:102BF0001A60104B1A60104B9B6814009C43231EF4
:102C0000F9D104710268D46602686624FF34146046
:102C10000268D3630268936302688833633CFF3CB5
:102C2000D450FFF767FF10BD0822E0E7AC02002098
:102C300000E0004000F0004000C0004030B585B02A
:102C400008AC25780024029401940095FFF73CFE1F
:102C500005B030BD30B585B008AC257800240294AD
:102C600001940095FFF7D0FE05B030BDF8B5DE4603
:102C700057464E464546E0B506000F0015000A9A35
:102C800093424ED31A0E92461B0298460A9A00238C
:102C90004046514601F02EFC81467400A419A40060
:102CA0002E4B9C4664446368834200D26060331FAD
:102CB000DBB29B46012B3AD9C0239B0123438022E0
:102CC00012011A60264BB200D158002905D058696C
:102CD00001F0D2FB01300138FDD16D0123685D4068
:102CE000E0222A4080235B0123431A605A46012ACE
:102CF00028D980239B012343802212011A604B466E
:102D000063604A4600234046514601F0F3FB144BF2
:102D1000B60098510120F0BCBB46B246A946A04679
:102D2000F8BD104B104A11482D2100F0E1F9012F98
:102D3000C2D1C0239B01234303221A60A368DB078F
:102D4000FCD5CAE72168794003220A401A60A368CB
:102D50000125BD401D42FAD0CBE7C04600800040AF
:102D6000E804002068630010C06300107C6300105A
:102D700030B583B00C2000F017F9FEF76FF900288A
:102D80000DD0002304E02E4A99002E4888500133CC
:102D9000092BF8D92A4B2C4A5A6203B030BD2B4B71
:102DA00000229A6700F008F9294B01221A60274B8C
:102DB0005B6C012BFBD1274B03221A60234B9B6BCF
:102DC000012BFBD1013300930433234A0121234813
:102DD00000F054F805230093214A0121214800F016
:102DE0004DF8214B0093002202210420FFF73EFF03
:102DF0001E4D00952B00002201210520FFF736FF14
:102E0000104C00942300002200210720FFF72EFF22
:102E100000942300002200210820FFF727FF0A4B1F
:102E200000932300002200210920FFF71FFF0095D7
:102E30002B00002200210620FFF718FFADE7C04657
:102E4000E8040020006CDC021BB70000008000409A
:102E50003CB0004030B00040002F68590080024074
:102E6000008C864700C00240001BB7004059730722
:102E7000014B8000C0587047E8040020F0B5C646FA
:102E800000B504000D00170098460C2001F0F4FA7C
:102E90000600394BFA18394B9A4241D843011B1AA4
:102EA0009901C91AC90009188901380001F0E4FA2A
:102EB0000200103A98235B009A4237D84346013B00
:102EC000062B39D8069B013B062B35D83F09B74264
:102ED00038D343461E04069B1B031E432368002B66
:102EE00036DB274B9C4244D080235B01254A13608C
:102EF000254A1360254A926819009143FAD125604A
:102F0000A060221DC0239B01134321221A60226866
:102F1000002AFCDAE66008221A6080BCB846F0BDE0
:102F20001B4B1C4A1C48112100F0E2F81B4B194AAC
:102F30001948192100F0DCF8194B164A16481C21D3
:102F400000F0D6F8174B134A1348232100F0D0F8AD
:102F500022683F231340AB42C3D1A3681B051B0D5E
:102F60008342BED1E368EE22D2021340B342B8D10D
:102F7000D3E780239B01B9E780E84BD380F8A932DF
:102F800000C0024000E0004000F0004000C00040EF
:102F9000D0630010F46400103064001070640010FE
:102FA0008C640010D864001080239B000343014A06
:102FB000D362704700800540064BAA2212011A60B6
:102FC0002F22DA60044B054A1A60024B5B68002B23
:102FD000FBDA7047004002400060024000B0FA0097
:102FE00070B504000D000620FFF742FFC000290065
:102FF00001F042FAC60908D00E4B9E4217D87F2333
:103000000340013335005E0800E001256562A662D9
:103010002C3480239B01234300221A600620FFF7F3
:1030200027FF8000A901891901F026FA70BD00264A
:10303000014DEBE7FEFF0000FFFF0000002909D073
:103040000A22064B9C46604443425841044B4000D0
:10305000C252704780225200F3E7C0460080FCBF96
:103060009807002070B505000C000620FFF700FF50
:10307000002829D0164B9D4227D08022D203154B21
:103080001A60154B1A60154B9B6811009943FAD1D1
:1030900000212800FFF7D2FF21002800FFF7A0FF42
:1030A00029002C31EB6A602253400E321A408023F3
:1030B0005B010B431A600A4B2B6380239B010B437C
:1030C00010221A600323AB6470BD80221204D6E77D
:1030D0000080034000E0004000F0004000C00040DD
:1030E0000103000000BEFDE710B5FFF7FBFF000085
:1030F00030B583B00D001900002A0DD0084B002A0E
:103100000CD0084C019200932B000200200002F02A
:10311000B1FA0120FFF7E6FF034BF0E7024AF0E7C0
:103120000065001010650010005A001070B52B4BA0
:103130002B4A1A602B4B2C4A1A602C4B9A682A4B4C
:103140009343FAD12A4C01E008CC9847294B9C4282
:10315000FAD3FFF70DFE234B274A1A60234B9B68D7
:10316000DB43DB01FAD1254B40229A675A671A6785
:10317000DA66234C09E0234B234A24488621FFF7D3
:10318000B7FF2000FEF710FA0834214B9C4209D209
:103190002368002BF5D0012BEDD12000FEF711FAAA
:1031A0000834F2E71B4DA9681B4CC022200002F036
:1031B00009F9AC60EFF30583002B00D000BEFDF7EA
:1031C00087FFFEF7DBF9FEF763FD144C01E008CC46
:1031D0009847134B9C42FAD370BDC04600E00040B4
:1031E000BFCDFBFE00F00040FE7F3C0000C0004071
:1031F0000003002010030020FFFFFF0100F001404A
:10320000F802002040650010B465001060650010F1
:103210000003002000ED00E000000020100300206B
:10322000140300200FB400B583B0084802F0F2F98F
:10323000049B002B07D005A90191180002F0FAF9B0
:10324000034802F0E7F90120FFF74CFFA4650010E6
:1032500070590010704710B5002802D00B684968FB
:10326000984710BD0100002007E083001B185B0099
:10327000501C08601078C01830380A681378303B4A
:10328000DBB2092BF1D97047F0B5DE4657464E4602
:103290004546E0B583B093461F000C9B9A460D9CB3
:1032A0000E9B99460F9B9B0703D0B8460F00060064
:1032B00022E00192A34688464E46B9460700B44232
:1032C00007D2551C4B4641462020B84701342A00FE
:1032D000F5E73D004F465C46019B9B46B14646469E
:1032E000B84637002E0007E0013C551C5346185DD8
:1032F00043463900B0472A00002CF5D135003E0086
:1033000047460F9B9B0707D4100003B0F0BCBB4699
:10331000B246A946A046F0BDB0464E46B9462F007B
:103320005D46531BB342EFD2541C4B46414620200E
:10333000B8472200F5E7F0B5CE46474680B585B0E0
:10334000944698460C9D0D9C0EAB1B789946109A9E
:10335000119B129EB7071CD4002B0CD0F7070AD57F
:103360004F46002F02D10C37374204D0013B02E018
:1033700030272F550134944201D21F2CF8D9F7077A
:1033800007D59C4205D21F2C03D830272F55013476
:10339000F5E7F70615D5770505D4002C03D0944240
:1033A00024D09C4222D00F9A102A2BD00F9A102A98
:1033B00030D00F9A022A35D01F2C02D830222A553D
:1033C00001341F2C05D84A46002A31D02D222A5517
:1033D0000134039602930194009543466246FFF739
:1033E00053FF05B0C0BCB946B046F0BD621E012C0B
:1033F00006D00F9F102F01D01400D4E7023CD2E773
:103400001400D0E7B206D1D41F2CCFD878222A5589
:103410000134D1E7B206CCD51F2CCAD858222A5580
:103420000134C9E71F2CC7D860322A550134C3E7DD
:10343000720703D52B222A550134CAE73207C8D5B3
:1034400020222A550134C4E7F0B5DE4657464E46E1
:103450004546E0B593B081468A46089209931CAB75
:1034600010CB1B789B461E9D219B9846002C03D1B8
:10347000102342469A4390468023DB0046461E4076
:1034800042461A4212D0002C22D000260EE03031E3
:10349000CBB2771C0AAA93552900200000F0ECFF5C
:1034A000AC4216D31F2F14D83E0004002900200080
:1034B00000F0E2FFC9B20929E9D943469B0605D5C8
:1034C00041235B18DBB20A3BDBB2E2E76123F8E79A
:1034D000270043460693209B05931F9B0493039567
:1034E0005B46029301970AAB0093099B089A5146E9
:1034F0004846FFF720FF13B0F0BCBB46B246A946D2
:10350000A046F0BDF0B5DE4657464E464546E0B50E
:1035100095B0089009910A920B931E9E1F9C20ABB8
:103520001B789B46229B9946239D269B9A463300F7
:10353000234303D1103352469A4392468023DB0043
:1035400057461F4052461A4219D0330023432DD00C
:10355000002714E03032D3B27A1C90460CAAD3551F
:103560004A462B003000210000F0C4FFA5421FD8BE
:1035700019D043461F2B1BD8474606000C004A466D
:103580002B003000210000F0B5FFD2B2092AE1D9AA
:1035900053469B0605D541239B18DBB20A3BDBB2A1
:1035A000DAE76123F8E7B145E3D901E00023984663
:1035B00053460693259B0593249B04934B46039304
:1035C0005B460293434601930CAB00930B9B0A9A14
:1035D00009990898FFF7AFFE15B0F0BCBB46B2469C
:1035E000A946A046F0BD0000F0B5DE4657464E465F
:1035F0004546E0B591B083468A460C9298461A9C9F
:1036000008941B9D099522002B002000290001F041
:10361000FCF9002800D0E5E001225242D74B2000FF
:10362000290001F0EDF9002800D0DBE00122524230
:10363000D34B2000290001F0CDF9002800D0D1E0C3
:1036400000220023089E3000099D290001F0C2F9E4
:10365000002800D0DDE0089A099B0692079380239A
:10366000DB001E9A1A400D921E9A1A4201D10623BF
:103670001C930698079904000D000A0006000243F7
:1036800000D1D1E0080D4005400DBE4CA446604479
:103690000A03120BBC4B13431F0001F0C9F9BB4ACC
:1036A000BB4B01F054F9BB4ABB4B01F029F90400B4
:1036B0000D000022B94B3000390001F018F9B84A6A
:1036C000B84B01F044F902000B002000290001F082
:1036D00017F901F0C5F9814601F0AAF904000D00BF
:1036E000B14AB24B01F033F90022B14B01F008F9B5
:1036F00001F0B6F90600AF4AAF4B2000290001F0F7
:1037000026F904000D00300001F092F9AB4AAC4BF1
:1037100001F01DF902000B002000290001F0E7F87C
:1037200004000D0002000B0001F011F90A900B914A
:10373000A44BF31800261F0522002B0020002900AF
:1037400001F0DEF80E900F9122002B000020802166
:10375000C90501F0CCF804000D0000229A4B0A982C
:103760000B9901F0D6F80022984B01F0C9F802003D
:103770000B000A980B9901F0CCF80022944B01F051
:10378000BFF802000B000A980B9901F0C2F8020082
:103790000B002000290001F0B3F802000B000E9886
:1037A0000F9901F0B6F80022774B01F0A9F832002A
:1037B0003B0001F0CCF806000F0004000D00069A53
:1037C000079B01F01DF9002830D001235B429C4685
:1037D000E14400227D4B3000390001F09AF80400EA
:1037E0000D0023E01E9B04931D9B03931C9B0293DF
:1037F000089A099B0092019343460C9A51465846F9
:1038000000F0FCF811B0F0BCBB46B246A946A04699
:10381000F0BD0023002406930794069680231B0620
:103820009C46654407951AE7002399464B46633347
:10383000C62B1ED804261E9B1B0526D52B00234312
:103840000FD0644A644B0698079901F0D1F800281C
:1038500079D00022614B0698079901F0BBF8002847
:1038600071D01C9B4B4506DD4A469B1A013B1C93BD
:1038700003E00526DFE700231C938023DB001E9A6C
:103880001A431E920026002399461D9B9E4264D235
:103890009F1B02231E9A1A400A921E9A134202D0BC
:1038A000002E00D000274B46002B07D022002B0013
:1038B0000698079901F02DF8069007910022002341
:1038C0000898099901F086F8002848D1444B1E9ABF
:1038D0001340049303971C9B0293069B079C009341
:1038E000019443460C9A5146584600F087F8002E42
:1038F00000D187E71E9B9B063DD54525441C4346CA
:10390000020051462800D8474A46D317D2185A40D9
:1039100005230593013E0496002303930A33029383
:103920004B46DB0F01930092434622005146584616
:10393000FFF78AFD0A9B002B00D163E702005F4678
:103940000C9E1D9D54E01C9B002B9ED00D9B002BBC
:103950009BD01C9B013B1C9397E7002799E7069C93
:10396000079D2200290080200006844661440B0048
:1039700006920793AAE76525C0E7C046FFFFEF7FE1
:10398000FFFFEFFF01FCFFFF0000F03FFB799F50BE
:103990001344D33FB3C8608B288AC63F0000F83F6A
:1039A00061436F63A787D23F71A379094F930A40A0
:1039B0000000E03F1655B5BBB16B0240EF39FAFE8F
:1039C000422EE63FFF03000000002C400000244090
:1039D000000018402D431CEBE2361A3F80842E4134
:1039E000FFF7FFFF541C434651462020B8472200F2
:1039F000931BAB42F6D3100004E7C046F0B5DE4699
:103A000057464E464546E0B595B006900791934619
:103A10009946209F1E9A1F9B1000190000F0F5FF89
:103A2000002831D101225242BF4B1E981F9900F04D
:103A3000D1FF002837D101225242BC4B1E981F995A
:103A400000F0DEFF00283DD10022B94B1E981F99DF
:103A500000F0D6FF002850D10022B64B1E981F99C7
:103A600000F0B8FF002848D1002200231E981F99BB
:103A700000F0B0FF002850D100239846229B5B0540
:103A800000D4B6E0002458E0229B0393219B0293CC
:103A900003230193A84B00934B465A460799069877
:103AA000FFF7F2FB0EE1229B0393219B0293042379
:103AB0000193A24B00934B465A4607990698FFF78D
:103AC000E3FBFFE00423229A1A4022990B4210D014
:103AD0009B4B002A0FD00422229903912199029135
:103AE000019200934B465A4607990698FFF7CCFB84
:103AF000E8E0944BEDE70322EEE7229B0493219B41
:103B0000039302971E9B1F9C009301944B465A46B9
:103B100007990698FFF768FDD4E01E9A1F9B0020C6
:103B2000002100F0E4FE1E901F9101239846A5E7B6
:103B30000CAB30221A55013F01341F2C01D8092F3C
:103B4000F6D81E981F9900F08BFF050000F070FF5B
:103B500002000B001E981F9900F0C9FE7A4BFA0074
:103B60009B181A685B680A920B9300F0F0FE0890AD
:103B7000099100F099FF060000F056FF02000B00CB
:103B80000898099900F0B3FE0890099100226F4B44
:103B900000F036FF00282ED00136300000F044FF40
:103BA00002000B000A980B9900F01AFF002801D0C0
:103BB00001350026002F2CD1280000F039FF02002B
:103BC0000B001E981F9900F092FE06000F000022C5
:103BD0005E4B00F0FFFE002846D100225B4B300018
:103BE000390000F00DFF00283ED1EB073CD5013530
:103BF0003AE0062746E70022544B0898099900F05E
:103C0000E9FE0028D6D1002E01D0F307D2D5013627
:103C1000D0E7AA461F2C11D8013F0A21300000F03E
:103C20002BFC651C30310CAB19550A21300000F01B
:103C300023FC092E0ED906002C00EBE755461F2C5D
:103C40000CD87B1E002F09D00CAA302111551F0063
:103C50000134F4E72B0055461C00F0E71F2C03D875
:103C60000CAB2E221A5501341F2C10D80A21280023
:103C700000F0DAFB661C30310CAB19550A21280024
:103C800000F0D2FB051E01D03400EDE73400032321
:103C9000229A1340012B1CD01F2C06D84346002B20
:103CA00032D00CAB2D221A550134229B0393219B59
:103CB000029301940CAB00934B465A460799069821
:103CC000FFF7E2FA15B0F0BCBB46B246A946A046E3
:103CD000F0BD219B002B13D04346002B02D10C33A7
:103CE00013420FD0219B013B2193190003E00CAB41
:103CF00030221A5501348C42CED21F2CF7D9CBE793
:103D00002199F8E72199F6E7229B5B0704D50CABD4
:103D10002B221A550134C8E7229B1B07C5D50CABD3
:103D200020221A550134C0E7FFFFEFFFFFFFEF7FAE
:103D300065CDCD4165CDCDC1D0650010D4650010F5
:103D4000C4650010CC650010786700100000E03FEB
:103D5000F0B5DE4657464E464546E0B593B082463E
:103D60008B4690461193002900D100E3002754466A
:103D7000119B1878002800D1FCE2252809D07D1C71
:103D800043463A005946A047119B013311932F0037
:103D9000EEE7013311930025119A11780B00203BB7
:103DA000D8B2102803D88300C248C3589F460B00DE
:103DB000303BDBB2092B2CD92A292FD000230A93C0
:103DC000119B1A782E2A39D000239946119A13781C
:103DD000683BD9B2122976D88B00B749CB589F4699
:103DE00001231D4301321192D6E702231D43013204
:103DF0001192D1E704231D4301321192CCE708232D
:103E00001D4301321192C7E710231D430132119265
:103E1000C2E711A8FFF726FA0A90D1E71C9B1A1DEA
:103E20001C921B68002B04DB0A93119B0133119336
:103E3000C6E7022215435B420A93F6E78022D200CE
:103E400015435A1C11925A781300303BDBB2092BF0
:103E500004D92A2A07D000239946B7E711A8FFF70B
:103E600001FA8146B2E71C9B1A1D1C921B68002BAD
:103E700004DB9946119B01331193A7E70023F8E770
:103E800080235B002B43511C119152786C2A01D086
:103E90001D0018E0C0239B001D430131119112E069
:103EA00080232B43511C11915278682A01D01D00A8
:103EB00009E0C0231D430131119104E080235B0020
:103EC0001D4301321192119B1878672816D82528B6
:103ED00026D30300253BDAB2422A21D89300774A41
:103EE000D3589F4680239B001D4301321192EAE77D
:103EF00080235B001D4301321192E4E778280FD83C
:103F000069280DD30200693AD2B2012393406C4A6A
:103F100013420FD11A0600D503E25B0500D594E1E8
:103F20007D1C43463A005946A047119B013311932B
:103F30002F001DE7782809D0622838D06F2838D0A4
:103F4000582838D010239D430A2600E01026582810
:103F500033D0692803D0642801D00C2295436A0528
:103F600001D50122954369282AD0642828D0AA05C2
:103F700000D5A7E0EA0500D5C0E06A0600D4D2E08B
:103F80001C9A111D1C911168FF220A4005950A9B7D
:103F900004934B46039302960023019300924346F9
:103FA0003A0059462000FFF74FFA070027E00226A3
:103FB000CDE70826CBE71026C9E720221543C8E73E
:103FC000AA0520D4EA0550D46A0666D51C9A111DAC
:103FD0001C911168FF220A40D01711184140059525
:103FE0000A9B04934B4603930296D20F01920091D1
:103FF00043463A0059462000FFF726FA0700119B76
:1040000001331193B4E61C9A073207218A43110049
:1040100008311C91116853689C46DB170C930D9373
:104020000C9A0D9B100048400E90624653400F932F
:104030000E980F990C9A0D9B801A99410E900F9132
:1040400008950A9B07934B46069304960023059315
:104050006346DA0F02920090019143463A005946B6
:104060002000FFF74FFA0700C9E71C9A111D1C91A9
:104070001268D0171118414005950A9B04934B46CE
:1040800003930296D20F0192009143463A0059469B
:104090002000FFF7D9F90700B1E72A0605D51C9AD9
:1040A000111D1C910023D25E96E71C9A111D1C91D4
:1040B000126891E7DC650010206600106C66001045
:1040C000419000001C9A073207218A4311000831F1
:1040D0001C9108950A9B07934B4606930496002370
:1040E00005930293536812680092019343463A0085
:1040F00059462000FFF706FA070080E71C9A111DB9
:104100001C9105950A9B04934B460393029600234A
:1041100001931368009343463A0059462000FFF785
:1041200093F907006BE72A0606D51C9A111D1C910E
:1041300012681204120C29E71C9A111D1C911268B6
:1041400024E746281AD01C9B0733072293431A0002
:1041500008321C9204950A9A03924A4602921A68FF
:104160005B680092019343463A0059462000FFF7EE
:1041700045FC0700119B01331193F9E520231D43F2
:10418000E1E7672801D0472802D180231B011D43A6
:10419000452801D0472801D120231D431C9B07330C
:1041A000072293431A0008321C9204950A9A03923C
:1041B0004A4602921A685B680092019343463A00AD
:1041C00059462000FFF710FA0700119B01331193A5
:1041D000CEE502231A002A4092462B421FD0012529
:1041E0001C9B1A1D1C927A1C9146187843463A0073
:1041F0005946A0475346002B16D1119B013311930A
:104200004F46B5E5561C434659462020B8472B007B
:1042100032005D1C9C42F5D83C001700E0E701230A
:104220003A0027000A9CF4E74A46A1460A9C06E0A9
:10423000571C434659462020C84735003A006E1C9B
:10424000AC42F5D84C469146D7E71C9B1A1D1C92F0
:104250001E684B46002B00D1013B310001E00131CB
:1042600013000A78002A02D05A1E002BF7D1891BAE
:1042700010918023DB002A001A4092461D4203D091
:10428000494501D94B46109302231A002A400B924C
:104290002B4205D03A00574623004C46994620E071
:1042A0003A00109B5F46B346260006E0541C434686
:1042B00039002020B0472B0022005D1C0A9999424A
:1042C000F4D834005E46BB461095574623004C4652
:1042D000994606E01C000136551C43465946C8471E
:1042E0002A003078002804D0002FF4D0631E002C60
:1042F000F0D117004C460B9B002B03D1119B0133CF
:10430000119335E50A9F109B06E0561C434659461B
:104310002020A0472B0032005D1C9F42F5D81700DB
:10432000ECE721232B431C9A111D1C911268059365
:10433000082304934B460393102302930023019315
:10434000009243463A0059462000FFF77DF80700E7
:10435000119B013311930BE57D1C43463A005946EE
:104360002520A047119B013311932F0000E50B4B33
:104370009A46FBE4A246474502D343465A1E00E054
:104380003A00434659460020D047380013B0F0BCED
:10439000BB46B246A946A046F0BDC0465532001005
:1043A00000B585B0029003910121044800931300E9
:1043B0004A4202A9FFF7CCFC05B000BD57320010FD
:1043C00001480421014B1847C0020020F1430010AE
:1043D00010B5010018231B8814221088984710BDBF
:1043E00010B5010018231B8816221088984710BDAD
:1043F000F0B5C64600B507000E000025012398461B
:1044000000E00135B5420AD2AC003C192068FFF744
:10441000DFFF20600028F4D100239846F1E74046F2
:1044200080BCB846F0BD0000124A936F9B0815D2BD
:104430009066D166002905D0FFE7FFE7FFE7516FDF
:10444000106F704704B580210906C217514000283B
:1044500000D0C84301F06CFA002104BDF0B5146E21
:10446000556E576F166FFFF7E3FF14665566576773
:104470001667F0BD000000D0114A936F9B0813D25D
:1044800010665166002905D0FFE7FFE7FFE7516F8F
:10449000106F704704B5002801D00020C04301F020
:1044A00047FA002104BDC046F0B5146E556E576F33
:1044B000166FFFF7E5FF1466556657671667F0BD80
:1044C000000000D094464A4A926F9208624601D298
:1044D00028E0C046F0B5464E346E756E776F366F85
:1044E00000F020F89446424A1466556657671667EE
:1044F0006246F0BD94463E4A926F9208624601D2EF
:1045000054E0C046F0B53A4E346E756E776F366F34
:1045100000F04CF89446364A14665566576716679D
:104520006246F0BD002B24DB11D000293EDA00B535
:10453000C943404200D1013100F038F8C94340423C
:1045400000D10131DB43524200D1013300BD002ACA
:10455000EBD1002801D1002905D00020C90FC907DF
:1045600001D1C043410800B501F0DAF9002200236F
:1045700000BD00B500290ADBDB43524200D1013304
:1045800000F014F8C943404200D1013100BDC943D5
:10459000404200D10131DB43524200D1013300F0EF
:1045A00005F8DB43524200D1013300BD002923D17D
:1045B000002B18D1002A0CD0BC460D4F38667A6605
:1045C00000210023FFE7FFE7FFE77A6F386F6746B8
:1045D0007047002801D00748010000B501F0A0F99C
:1045E0000022002300BD02000B00002000217047C4
:1045F000000000D0FFFFFFFF002B00D0BFE0130C36
:1046000028D1002AE7D080B4114F39667A66FFE7D7
:10461000FFE730B4040C7B6F396F1B0423433B6608
:104620007A66FFE7FFE7FFE7C04684B27B6F3D6F26
:104630001B0423433B667A66FFE7FFE7C04600237F
:104640002C042D0C7A6F386F00196941B0BC70478B
:10465000000000D0F0B594460025140E01D11202DE
:104660000835140F01D112010435940F01D19200C5
:104670000235D40F01D152000135D40B0134254F3E
:104680007C66254C3C660E0C93B2FFE7FFE7FFE724
:104690003C6F6643360C7703BE467343DF0B5B0407
:1046A000C01AB941130C7343DB18C91ACE0866430C
:1046B000360CB64493B273431F0F1B01C01AB941A5
:1046C000130C73431F0B1B05C01AB941860D8F02D3
:1046D0003E436643360C092D24DB520A7243801A8E
:1046E0007703460A6643360C16235B1BDE40DF4029
:1046F000BF1964466643821B7046043506330100C9
:10470000D940A840C01900D30131A24206D20023EB
:10471000F0BD0000000000D0FFFFFFFF121B0130C2
:10472000F3D3F1E709277F1BFE406446A2B2724330
:10473000801A00D20139220C7243130C1204821A1F
:1047400099410B007046043513370100F940A84029
:10475000801900D30131002B02D1A2420AD2F0BD50
:10476000013000D30131121BFAD2013BF8D1A24231
:1047700000D2F0BD013000D30131121BF7E7F0B5D4
:104780001C0C00D080E00CB400251C0A04D11B02D4
:10479000160E3343120208351C0B04D11B01160FF1
:1047A0003343120104359C0B04D19B00960F334315
:1047B00092000235DC0B02D192185B4101351C00DE
:1047C000971864410134464F7C66464C3C660E0C9B
:1047D000FFE7FFE7FFE7C0463C6F6643360C770311
:1047E000BE4697B27743C01B00D20139C01B00D22E
:1047F00001399FB27743C91BC91B170C77437E044D
:10480000FF0B801BB941CE086643360C0C2D33DB01
:10481000B644120B1F053A431B0B97B27743C01BDC
:1048200000D201399FB27743C91B170C77433E046E
:104830003F0C801BB941860D8F023E4366432927FA
:104840007F1BFE400C3D7746AF40BF1930BCA2B283
:10485000ABB272437343801A9941220C7243130C1A
:104860001204801A994102000B000137001BA94174
:10487000F9D2781E0021F0BD0C277F1BFE40774641
:104880007F0BAF40FF19E0E700245D1C07D0144FF9
:104890007D663966FFE7FFE7FFE7FFE73C6F95B20C
:1048A0009EB265436643401BB141150C1E0C654327
:1048B000664336042F0C3E432D04401BB141994200
:1048C00004D202000B0020000021F0BD01D1904273
:1048D000F7D3801A994101349942F2D3F6E70000E8
:1048E000000000D0FFFFFFFF48404140484018B49F
:1048F0001B4B5B68FC46019308BD04DFDB4B0010DB
:1049000018B4174B1B68FC46019308BD00DFE54B4C
:1049100000109446134A926F920809D2624618B466
:104920000F4BDB68FC46019308BD0CDF9D4E001069
:104930000C4AF0B5146E556E576F166F6246FFF74E
:10494000EEFF084A1466556657671667F0BD18B43F
:10495000034B9B68FC46019308BD08DF414D0010E6
:1049600080050020000000D0FFB55040424050407C
:1049700059404B40594000E0FFB5154F4C00640DC5
:1049800003D0BC4204D10C0314D80020090D090542
:104990005C00640D03D0BC4204D11C030AD8002281
:1049A0001B0D1B0501264B4009D44B4003D58B4200
:1049B00000D18242FFBD9942FCD19042FFBD0B4322
:1049C000DB1803431343F5D0C9434918FFBD00006A
:1049D000FF07000000B5FFF7CFFF804100BDC046D4
:1049E00000B5FFF7C9FF01D9002000BD012000BDBF
:1049F00000B5FFF7B9FF01D9002000BD012000BDBF
:104A000000B5FFF7B1FF804100BD012040054A001D
:104A1000121804D85A00121801D80020704701203B
:104A200070470020704700000021002805D1704722
:104A3000C1174840401AFAD0C90713B5064B1B6886
:104A400098470CBC441CA2401005120B0349091BDB
:104A500009051943114310BD800600201F04000002
:104A600010B54C00620D8023D218DB00D21A5B0512
:104A70007E2A10DD9E3A13DACC1709034908194340
:104A80005242D140640001341532202A05DAD04068
:104A90000843604310BD002010BD0846604310BDB0
:104AA000C80FC018013810BD18B4044B5B6AFC462F
:104AB000019308BD24DF4D50001000008005002048
:104AC00018B4044BDB6FFC46019308BD7CDFCD506E
:104AD000001000008005002070B513231C78012C05
:104AE00014D0012C14DC022C02DC1F4B1F4A9364EF
:104AF0001F48FFF76DFC1F4B186070BD1A491B4A19
:104B00009800815001331F2BF8D9EAE70023FAE718
:104B10001948FFF765FC05001848FFF761FC0238EB
:104B200003789B007F2B19DD10488022290000F0BC
:104B300049FC022CD7D1124B1A88B5231B029A428A
:104B400009D1104B1A88104B9A4204D10F4B1A8886
:104B50000F4B9A42C7D00020FEF764FB0D4B0E4A64
:104B60000E483221FEF7C4FAA14B00108005002048
:104B70004C330000800600205344000053460000E0
:104B800054380000D8380000494600009C38000026
:104B900059460000C86700107068001028680010AF
:104BA00007B56046002800D100BE01880A0A02301D
:104BB000DF2AFAD1C9B2820804D3028840880004EF
:104BC000104300E00068024A5050039007BD000007
:104BD000800500200FB403BC0CBCF0B50124E40731
:104BE000634000E0F0B50C0DCF0F661E3605891B43
:104BF000640503D3C943404200D30131640D03D09F
:104C0000661CF60A07D0E41B00207F00791C890788
:104C10008912803C24031D0DDF0F6E1E36059B1B81
:104C20006D0503D3DB43524200D301336D0D03D036
:104C30006E1CF60A07D0ED1B00227F007B1C9B0731
:104C40009B12803D2D032F1B661B58D4A446202E9B
:104C500046DA20371400BC401D00BD40F24033410D
:104C60002A4380185941CB0F05D0C943C0430022C5
:104C700064425041514162464D0D28D10D0D07D17E
:104C800000281FD0241940414941013A0D0DF9D0A7
:104C9000640006D3013000D30131002C01D140085B
:104CA0004000013A0BD4941CE40A04D112051144CB
:104CB000DB071944F0BDD907204B194300E0D907A1
:104CC0000020F0BD0029DDD1002CDBD1F0BD013288
:104CD000C6074008CD0728434908002EE1D0D9E790
:104CE0003C2E29DA203E40371400BC4000D001247D
:104CF000F24014431A00BB401C43D317ACE7AC4648
:104D0000202F08DA20360400B4400D00B540F840EA
:104D100039412843A5E73C2F0CDA203F40360400F8
:104D2000B44000D00124F84004430800B1400C43D3
:104D3000C117EAE710001900002494E70000F07F93
:104D4000F0B50C0D661E3605891BE60A6405640D78
:104D500002D0651CED0A04D0002001210905803C29
:104D60002403A4461C0D671E3F05DB1BE70A6405F0
:104D7000640D02D0651CED0A04D0002201231B053E
:104D8000803C24037740644497B484B296B2744361
:104D9000070C7E43150C6F4380B26843361802D36C
:104DA000012000043F183004350C00197D41844671
:104DB00088B29AB250430C0C62431F0C7C438EB2F3
:104DC0007E43921902D301263604A4191604170C47
:104DD0003618674101BC81B29AB25143040C624358
:104DE0001B0C5C4380B25843121802D3012000040C
:104DF00024181004130C401863412D185E41002044
:104E0000474106BC88B293B258430C0C6343120C62
:104E1000544389B251435B1802D301210904641839
:104E200019041A0C091862416D18564100204741B7
:104E300018BCF902720D1143F0026A0D1043ED0225
:104E40000A0D03D16D1940414941013B124E9B1B94
:104E50007600B3420ED26D0007D3013000267141B7
:104E60006646354301D1400840001B05C918E407D8
:104E70002144F0BD0BDA013306D1013004D10131F8
:104E80004F0D01D04908F2E7E1070020F0BD0136DF
:104E900031050020EBE70000FF030000F0B51C0D1A
:104EA000671E3F05DB1BE70A6405640D02D0661C24
:104EB000F60A04D0002201231B05803C2403D025E0
:104EC0002D060026F6432E661E096E66CE0FF619D5
:104ED000B44649004F0D02D07E1CF60A03D00020D4
:104EE0000021403F3F033E1BB600B444013F7F0515
:104EF000C91B49082E6F013676089C02950D254383
:104F00007543ED137543AD1301356D10F603761B34
:104F10000CB4CC02450D2C43A2B2B3B25A43270CB9
:104F20007B43350C6F43A4B26C431B1902D301249D
:104F300024043F191C041D0CA4187D4124196D4143
:104F4000009A91B2ACB26143170C7C432B0C5F43C7
:104F500092B25A43A41802D301221204BF182204A9
:104F6000230C52187B41019C6C431B19520ED90132
:104F70000A434401A01A81B2B2B2514303145A4306
:104F8000360C734387B27743D617D21900277E4178
:104F900036049B191704160C7F185E417316ED1822
:104FA000F301002680337541A90F06D16400690A18
:104FB000E8055B0A184309D22FE0042294448033A9
:104FC0007541A90AA8059B0A184326D340414941C7
:104FD0002404009A019B0D005543641B4343E41ACB
:104FE00095B286B27543170C7E43030C5F4392B2B1
:104FF0005A43B61802D301221204BF183204330CEC
:1050000052197B4152429C41002C02D400220130B3
:1050100051414008CA071043490802B06246D70709
:105020009210084BD218084B9A4203D212058918E5
:10503000C919F0BD0020002A01DC3900F0BD0133A0
:105040001905F5E7FD030000FE070000002200B58A
:10505000203200F004F8080000BD000000220B150B
:105060000AD410B5944600F05FF81414013400DA45
:105070000021CB17144C20470020002170476244C8
:10508000343A0CD40C2A07DA040091409040524282
:105090002032D440214310BDD843D94310BD203223
:1050A00007D40C469440524220321141D040204354
:1050B00010BD0800C917203203D4524220321041DB
:1050C00010BD1800190010BD7F5000104A00520D8D
:1050D000144BD21A13DDFF2A1EDAD205CB0FDB07E1
:1050E0001A43C300400F0903490A084310435B00F9
:1050F00001D301D0013070474308FBD2704702D082
:10510000C80FC00770470A0312130132F8D1420FCB
:10511000072AF5D1012200E0FF22C80F0002801803
:10512000C0057047800300000A0DCC0F531E1B05FD
:10513000C91A520503D3C943404200D30131520D6D
:1051400003D0531CDB0A07D0121B00206400611C33
:1051500089078912803A1203014BD21A7047000066
:10516000FF03000051434343C9188C46110C83B21E
:105170004B4310B4040C614392B280B2504362437B
:105180001C041B0C001910BC59411304120CC0184C
:10519000514161447047000048404140484000236D
:1051A0009C46114B5B68184700239C460E4B1B68BE
:1051B00018470E4A936F9B0804D200239C460A4B63
:1051C000DB681847F0B5146E556E576F166FFFF712
:1051D000F4FF064A1466556657671667F0BD00234C
:1051E0009C46014B9B68184784060020000000D0B5
:1051F000C10FC90700D54042002817D0F44603B4B8
:105200000B4B1B68984706BC81409E38404280315A
:1052100007D20B0607D04900490AC00510430843CE
:1052200060470130F8E7490A8902F5E77047000056
:1052300080060020034BDB6FFC4618477CDF795368
:10524000001000008406002070B513231E782A4841
:10525000FFF7C6F80500012E11D0012E09DDAB1EA7
:105260001B789B007F2B40DD24488022290000F022
:10527000A9F82348FFF7ACF8224B186070BD1F480F
:105280005422290000F09EF81F4B1A881F4B9A42A7
:105290001CD1A7239B011A881D4B9A4216D11D4B86
:1052A0001A881D4B9A4211D11C4B1A8894239B01DA
:1052B0009A420BD11A4B1A881A4B9A4206D11A4BB2
:1052C0001A681A4B9A4201D1152307E01848FDF7D6
:1052D000A9FF184C094A99008C5001331F2BF8D9AB
:1052E000144B064A1362D361B7E7134B134A1448B1
:1052F0004221FDF7FDFEC046534600008406002013
:105300004C33000080060020EE290000C40F00008E
:10531000C20D0000962B0000C0B50000182B000045
:10532000CC2A000010B50000FC2C000051ED876471
:10533000005A0010455300108468001000690010E6
:10534000B868001007B56046002800D100BE01888B
:105350000A0A0230DF2AFAD1C9B2820804D30288CD
:1053600040880004104300E00068024A5050039057
:1053700007BD000084060020C30FDB0741000A0EB2
:1053800007D0FF2A08D00909054A891819434007A0
:1053900070471900002070470249C918FAE7000059
:1053A000000000380000F07F01480421014B18473D
:1053B000D0020020F1430010014B1B681847000089
:1053C000D0020020014B5B6818470000D00200208B
:1053D00010B50300080011001B68984710BD0000BD
:1053E000F8B507000D001600437D002B02D0002405
:1053F00000200CE003681100280098472DE03B7D59
:1054000010E03B68154802219847601C0134B44203
:1054100014DA002CF3DD2B19013B1B780D3B5A42AB
:105420005341DBB22A5D0A2AF0D1002BEED1A04213
:10543000E7DA3B68211A28189847E2E7B04203DA16
:105440003B68311A28189847002E06DDAD19013D3A
:105450002B780D3B5A4253413B75F8BD88690010CB
:1054600070B505000368002B16D00C4B1C6805E0D6
:10547000290004C92000FFF7B3FF2469002C09D0DC
:105480002368002BF9D0064B1B68002BF0D0A342F9
:10549000F3D1EDE700232B6070BDC046500500201E
:1054A0005405002070B505000C000B68802B05D05A
:1054B00023685A1C2260E418257170BD0800FFF7AC
:1054C000CFFFF5E710B5FCF7EBFE02000B1E0BDB80
:1054D0000D48002112184B41002B0BDB002B0DDB7C
:1054E0000A4800F02DFA10BD094B0A4A0A483F212C
:1054F000FDF7FEFD01225242084BEFE7044B054A3F
:1055000005483F21FDF7F4FD40420F00F80200205E
:10551000385D001070690010545D0010FFFFFF7FC0
:1055200010B5024800F0F4F910BDC046F8020020A2
:10553000F0B5CE46474680B583B006000D009046D4
:105540001C00FFF7BFFF81466B1C05D0002C08D064
:10555000194F1A4B1C6807E0300000F0A7F905004E
:10556000F4E7174FF5E72469002C17D02368002BC8
:10557000F9D0144B1B68002B01D0A342F3D12A00B1
:1055800031002000B8474346002BECD06B46D91DB4
:105590000A230B7001222000B847E4E74B46002B9A
:1055A00007D16B1E9D41E8B203B0C0BCB946B046FE
:1055B000F0BDFFF7B5FFF4E7D15300105005002010
:1055C000E153001054050020094A01E010331A008D
:1055D0001368002B08D08342F8D1002907D1036952
:1055E00013600023036102E0002900D010607047BF
:1055F0005005002010B5064B1C6801E0984724694F
:10560000002C03D06368002BF8D1F8E710BDC0462A
:105610005005002070B5050000F048F90400002393
:10562000012201002800FFF783FFFFF7E3FF2000BE
:1056300070BD000070B5A2B004000E00FFF742FF7D
:105640000500002301930A483300220001A9FEF758
:10565000A7FE040001A8FFF703FFFFF7CBFF002D13
:1056600002D1200022B070BDFFF75AFFF9E7C04613
:10567000A55400100FB400B583B004A901C901916D
:10568000FFF7D8FF03B008BC04B0184710B500F00E
:10569000F9F8012010BD0000F0B583B005000E0040
:1056A00000240FE06B46D91D0D230B70002000284D
:1056B00016D193699B06FCD40B781360013001313D
:1056C000F5E70134B44219DA0D4B1A682F5D0D4B22
:1056D000D31859424B410C495B005B5EBB42E1D0A1
:1056E0006B46D91D0F7000200028EAD193699B06F4
:1056F000FCD40B78136001300131F5E703B0F0BD45
:105700009C0700200080FCBF98070020F0B583B004
:1057100005000E00002704E06B4607331B783B7042
:105720002700B74215DA174B1A6893691024210035
:1057300019401C420DD17C1CEF196B46D81D002965
:10574000EAD19369DB06FCD41368037001310130A0
:10575000F5E70D4B1B68002B0CD00A4B1B68502241
:105760009A63190034315B6B183A1A4080235B014D
:105770000B431A60002F02D0380003B0F0BD033F86
:10578000FAE7C0469C070020E004002010B5064B55
:105790001B68002B06D0054A126800219163044A59
:1057A0001068984710BDC046E00400209C07002008
:1057B000E404002070B504000E001C4B1B681C4A5A
:1057C00098184242504114300500002C03D0194A69
:1057D0001268002A06D0002C19D0164B1C60164BFC
:1057E0001E6070BD1549FBF753FD01212800FBF732
:1057F0003FFD0E4B1B6850229A63190034315B6BDE
:10580000183A1A4080235B010B431A60E5E7094A06
:105810001268002AE1D000229A6300212800FBF7D9
:1058200027FD06492800FBF75DFDD6E79C07002011
:105830000080FCBFE0040020E40400208D5700102D
:1058400070B50D001C000D4B1860002A0BDA002CFF
:105850000EDA0A4B18682900FDF704FC08480121FC
:10586000FFF7B2FE70BD02211000FBF74FFCEEE720
:1058700002212000FBF74AFCEBE7C0469C07002012
:10588000E002002010B5064B1B78064B1B78E12187
:105890000123002249020448FFF7D2FF10BDC04691
:1058A000EC690010F06900100040034010B5830758
:1058B0000AD00300032102E001330B4205D01A781D
:1058C000002AF9D1181A10BD030019680C4A0D4CB2
:1058D0008A188A4322420FD15968094A04338A1828
:1058E0008A43224208D15968054A04338A188A43F8
:1058F0002242F1D000E001331A78002AFBD1E1E71F
:10590000FFFEFEFE80808080F8B5C04600000000EB
:1059100001B40248844601BC604700BFC9010020B1
:1059200001B40248844601BC604700BF1502002054
:1059300001B40248844601BC604700BF1502002044
:1059400001B40248844601BC604700BF95010020B5
:1059500054656D706572617475726520616E676CF7
:1059600065642020203D20252E3266206465674333
:105970000A00000054656D7065726174757265206F
:105980007374726169676874203D20252E32662029
:10599000646567430A000000507265737375726531
:1059A00020616E676C65642020202020203D20252A
:1059B0002E3366206B50610A000000005072657340
:1059C0007375726520737472616967687420202032
:1059D000203D20252E3366206B50610A0000000018
:1059E00048756D696469747920616E676C656420BF
:1059F00020202020203D20252E3366202552480AD5
:105A00000000000048756D696469747920737472D0
:105A10006169676874202020203D20252E33662090
:105A20002552480A000000005250323034302050D5
:105A300072656D69657200000000000000000000E2
:105A400000000000000005040B0D0000060052508D
:105A5000197CA0B6285A001064656C7461203E3D24
:105A6000202D323034382026262064656C74612065
:105A70003C3D203230343620262620212864656CB7
:105A80007461202620312900433A5C565341524D1F
:105A90005C73646B5C7069636F5C7069636F2D73BA
:105AA000646B5C7372635C7270325F636F6D6D6F99
:105AB0006E5C68617264776172655F6972715C695E
:105AC00072712E6300000000212864656C746120EF
:105AD0003E3E20313175290063757272656E742007
